{
  "_format": "hh-sol-artifact-1",
  "contractName": "BuyMyRoom",
  "sourceName": "contracts/BuyMyRoom.sol",
  "abi": [
    {
      "inputs": [],
      "stateMutability": "nonpayable",
      "type": "constructor"
    },
    {
      "inputs": [
        {
          "internalType": "address",
          "name": "sender",
          "type": "address"
        },
        {
          "internalType": "uint256",
          "name": "tokenId",
          "type": "uint256"
        },
        {
          "internalType": "address",
          "name": "owner",
          "type": "address"
        }
      ],
      "name": "ERC721IncorrectOwner",
      "type": "error"
    },
    {
      "inputs": [
        {
          "internalType": "address",
          "name": "operator",
          "type": "address"
        },
        {
          "internalType": "uint256",
          "name": "tokenId",
          "type": "uint256"
        }
      ],
      "name": "ERC721InsufficientApproval",
      "type": "error"
    },
    {
      "inputs": [
        {
          "internalType": "address",
          "name": "approver",
          "type": "address"
        }
      ],
      "name": "ERC721InvalidApprover",
      "type": "error"
    },
    {
      "inputs": [
        {
          "internalType": "address",
          "name": "operator",
          "type": "address"
        }
      ],
      "name": "ERC721InvalidOperator",
      "type": "error"
    },
    {
      "inputs": [
        {
          "internalType": "address",
          "name": "owner",
          "type": "address"
        }
      ],
      "name": "ERC721InvalidOwner",
      "type": "error"
    },
    {
      "inputs": [
        {
          "internalType": "address",
          "name": "receiver",
          "type": "address"
        }
      ],
      "name": "ERC721InvalidReceiver",
      "type": "error"
    },
    {
      "inputs": [
        {
          "internalType": "address",
          "name": "sender",
          "type": "address"
        }
      ],
      "name": "ERC721InvalidSender",
      "type": "error"
    },
    {
      "inputs": [
        {
          "internalType": "uint256",
          "name": "tokenId",
          "type": "uint256"
        }
      ],
      "name": "ERC721NonexistentToken",
      "type": "error"
    },
    {
      "inputs": [
        {
          "internalType": "address",
          "name": "owner",
          "type": "address"
        }
      ],
      "name": "OwnableInvalidOwner",
      "type": "error"
    },
    {
      "inputs": [
        {
          "internalType": "address",
          "name": "account",
          "type": "address"
        }
      ],
      "name": "OwnableUnauthorizedAccount",
      "type": "error"
    },
    {
      "anonymous": false,
      "inputs": [
        {
          "indexed": true,
          "internalType": "address",
          "name": "owner",
          "type": "address"
        },
        {
          "indexed": true,
          "internalType": "address",
          "name": "approved",
          "type": "address"
        },
        {
          "indexed": true,
          "internalType": "uint256",
          "name": "tokenId",
          "type": "uint256"
        }
      ],
      "name": "Approval",
      "type": "event"
    },
    {
      "anonymous": false,
      "inputs": [
        {
          "indexed": true,
          "internalType": "address",
          "name": "owner",
          "type": "address"
        },
        {
          "indexed": true,
          "internalType": "address",
          "name": "operator",
          "type": "address"
        },
        {
          "indexed": false,
          "internalType": "bool",
          "name": "approved",
          "type": "bool"
        }
      ],
      "name": "ApprovalForAll",
      "type": "event"
    },
    {
      "anonymous": false,
      "inputs": [
        {
          "indexed": false,
          "internalType": "uint256",
          "name": "tokenId",
          "type": "uint256"
        },
        {
          "indexed": false,
          "internalType": "uint256",
          "name": "price",
          "type": "uint256"
        },
        {
          "indexed": false,
          "internalType": "address",
          "name": "owner",
          "type": "address"
        }
      ],
      "name": "HouseListed",
      "type": "event"
    },
    {
      "anonymous": false,
      "inputs": [
        {
          "indexed": false,
          "internalType": "uint256",
          "name": "tokenId",
          "type": "uint256"
        },
        {
          "indexed": false,
          "internalType": "address",
          "name": "newOwner",
          "type": "address"
        },
        {
          "indexed": false,
          "internalType": "uint256",
          "name": "salePrice",
          "type": "uint256"
        }
      ],
      "name": "HouseSold",
      "type": "event"
    },
    {
      "anonymous": false,
      "inputs": [
        {
          "indexed": true,
          "internalType": "address",
          "name": "previousOwner",
          "type": "address"
        },
        {
          "indexed": true,
          "internalType": "address",
          "name": "newOwner",
          "type": "address"
        }
      ],
      "name": "OwnershipTransferred",
      "type": "event"
    },
    {
      "anonymous": false,
      "inputs": [
        {
          "indexed": true,
          "internalType": "address",
          "name": "from",
          "type": "address"
        },
        {
          "indexed": true,
          "internalType": "address",
          "name": "to",
          "type": "address"
        },
        {
          "indexed": true,
          "internalType": "uint256",
          "name": "tokenId",
          "type": "uint256"
        }
      ],
      "name": "Transfer",
      "type": "event"
    },
    {
      "inputs": [
        {
          "internalType": "address",
          "name": "to",
          "type": "address"
        },
        {
          "internalType": "uint256",
          "name": "tokenId",
          "type": "uint256"
        }
      ],
      "name": "approve",
      "outputs": [],
      "stateMutability": "nonpayable",
      "type": "function"
    },
    {
      "inputs": [
        {
          "internalType": "address",
          "name": "owner",
          "type": "address"
        }
      ],
      "name": "balanceOf",
      "outputs": [
        {
          "internalType": "uint256",
          "name": "",
          "type": "uint256"
        }
      ],
      "stateMutability": "view",
      "type": "function"
    },
    {
      "inputs": [
        {
          "internalType": "uint256",
          "name": "tokenId",
          "type": "uint256"
        }
      ],
      "name": "buyHouse",
      "outputs": [],
      "stateMutability": "payable",
      "type": "function"
    },
    {
      "inputs": [],
      "name": "feePercentage",
      "outputs": [
        {
          "internalType": "uint256",
          "name": "",
          "type": "uint256"
        }
      ],
      "stateMutability": "view",
      "type": "function"
    },
    {
      "inputs": [],
      "name": "getAllListedHouses",
      "outputs": [
        {
          "components": [
            {
              "internalType": "uint256",
              "name": "houseId",
              "type": "uint256"
            },
            {
              "internalType": "address",
              "name": "owner",
              "type": "address"
            },
            {
              "internalType": "uint256",
              "name": "price",
              "type": "uint256"
            },
            {
              "internalType": "uint256",
              "name": "listedTimestamp",
              "type": "uint256"
            },
            {
              "internalType": "bool",
              "name": "isListed",
              "type": "bool"
            }
          ],
          "internalType": "struct BuyMyRoom.HouseDTO[]",
          "name": "",
          "type": "tuple[]"
        }
      ],
      "stateMutability": "view",
      "type": "function"
    },
    {
      "inputs": [
        {
          "internalType": "uint256",
          "name": "tokenId",
          "type": "uint256"
        }
      ],
      "name": "getApproved",
      "outputs": [
        {
          "internalType": "address",
          "name": "",
          "type": "address"
        }
      ],
      "stateMutability": "view",
      "type": "function"
    },
    {
      "inputs": [
        {
          "internalType": "uint256",
          "name": "tokenId",
          "type": "uint256"
        }
      ],
      "name": "getHouseInfo",
      "outputs": [
        {
          "components": [
            {
              "internalType": "address",
              "name": "owner",
              "type": "address"
            },
            {
              "internalType": "uint256",
              "name": "price",
              "type": "uint256"
            },
            {
              "internalType": "uint256",
              "name": "listedTimestamp",
              "type": "uint256"
            },
            {
              "internalType": "bool",
              "name": "isListed",
              "type": "bool"
            }
          ],
          "internalType": "struct BuyMyRoom.House",
          "name": "",
          "type": "tuple"
        }
      ],
      "stateMutability": "view",
      "type": "function"
    },
    {
      "inputs": [],
      "name": "getManager",
      "outputs": [
        {
          "internalType": "address",
          "name": "",
          "type": "address"
        }
      ],
      "stateMutability": "view",
      "type": "function"
    },
    {
      "inputs": [],
      "name": "getMyHouses",
      "outputs": [
        {
          "components": [
            {
              "internalType": "uint256",
              "name": "houseId",
              "type": "uint256"
            },
            {
              "internalType": "address",
              "name": "owner",
              "type": "address"
            },
            {
              "internalType": "uint256",
              "name": "price",
              "type": "uint256"
            },
            {
              "internalType": "uint256",
              "name": "listedTimestamp",
              "type": "uint256"
            },
            {
              "internalType": "bool",
              "name": "isListed",
              "type": "bool"
            }
          ],
          "internalType": "struct BuyMyRoom.HouseDTO[]",
          "name": "",
          "type": "tuple[]"
        }
      ],
      "stateMutability": "view",
      "type": "function"
    },
    {
      "inputs": [
        {
          "internalType": "uint256",
          "name": "",
          "type": "uint256"
        }
      ],
      "name": "houses",
      "outputs": [
        {
          "internalType": "address",
          "name": "owner",
          "type": "address"
        },
        {
          "internalType": "uint256",
          "name": "price",
          "type": "uint256"
        },
        {
          "internalType": "uint256",
          "name": "listedTimestamp",
          "type": "uint256"
        },
        {
          "internalType": "bool",
          "name": "isListed",
          "type": "bool"
        }
      ],
      "stateMutability": "view",
      "type": "function"
    },
    {
      "inputs": [
        {
          "internalType": "address",
          "name": "owner",
          "type": "address"
        },
        {
          "internalType": "address",
          "name": "operator",
          "type": "address"
        }
      ],
      "name": "isApprovedForAll",
      "outputs": [
        {
          "internalType": "bool",
          "name": "",
          "type": "bool"
        }
      ],
      "stateMutability": "view",
      "type": "function"
    },
    {
      "inputs": [
        {
          "internalType": "uint256",
          "name": "tokenId",
          "type": "uint256"
        },
        {
          "internalType": "uint256",
          "name": "price",
          "type": "uint256"
        }
      ],
      "name": "listHouse",
      "outputs": [],
      "stateMutability": "nonpayable",
      "type": "function"
    },
    {
      "inputs": [],
      "name": "manager",
      "outputs": [
        {
          "internalType": "address",
          "name": "",
          "type": "address"
        }
      ],
      "stateMutability": "view",
      "type": "function"
    },
    {
      "inputs": [],
      "name": "maxFeePercentage",
      "outputs": [
        {
          "internalType": "uint256",
          "name": "",
          "type": "uint256"
        }
      ],
      "stateMutability": "view",
      "type": "function"
    },
    {
      "inputs": [],
      "name": "mintHouse",
      "outputs": [
        {
          "internalType": "uint256",
          "name": "",
          "type": "uint256"
        }
      ],
      "stateMutability": "nonpayable",
      "type": "function"
    },
    {
      "inputs": [],
      "name": "name",
      "outputs": [
        {
          "internalType": "string",
          "name": "",
          "type": "string"
        }
      ],
      "stateMutability": "view",
      "type": "function"
    },
    {
      "inputs": [],
      "name": "nextHouseId",
      "outputs": [
        {
          "internalType": "uint256",
          "name": "",
          "type": "uint256"
        }
      ],
      "stateMutability": "view",
      "type": "function"
    },
    {
      "inputs": [],
      "name": "owner",
      "outputs": [
        {
          "internalType": "address",
          "name": "",
          "type": "address"
        }
      ],
      "stateMutability": "view",
      "type": "function"
    },
    {
      "inputs": [
        {
          "internalType": "uint256",
          "name": "tokenId",
          "type": "uint256"
        }
      ],
      "name": "ownerOf",
      "outputs": [
        {
          "internalType": "address",
          "name": "",
          "type": "address"
        }
      ],
      "stateMutability": "view",
      "type": "function"
    },
    {
      "inputs": [],
      "name": "renounceOwnership",
      "outputs": [],
      "stateMutability": "nonpayable",
      "type": "function"
    },
    {
      "inputs": [
        {
          "internalType": "address",
          "name": "from",
          "type": "address"
        },
        {
          "internalType": "address",
          "name": "to",
          "type": "address"
        },
        {
          "internalType": "uint256",
          "name": "tokenId",
          "type": "uint256"
        }
      ],
      "name": "safeTransferFrom",
      "outputs": [],
      "stateMutability": "nonpayable",
      "type": "function"
    },
    {
      "inputs": [
        {
          "internalType": "address",
          "name": "from",
          "type": "address"
        },
        {
          "internalType": "address",
          "name": "to",
          "type": "address"
        },
        {
          "internalType": "uint256",
          "name": "tokenId",
          "type": "uint256"
        },
        {
          "internalType": "bytes",
          "name": "data",
          "type": "bytes"
        }
      ],
      "name": "safeTransferFrom",
      "outputs": [],
      "stateMutability": "nonpayable",
      "type": "function"
    },
    {
      "inputs": [
        {
          "internalType": "address",
          "name": "operator",
          "type": "address"
        },
        {
          "internalType": "bool",
          "name": "approved",
          "type": "bool"
        }
      ],
      "name": "setApprovalForAll",
      "outputs": [],
      "stateMutability": "nonpayable",
      "type": "function"
    },
    {
      "inputs": [
        {
          "internalType": "bytes4",
          "name": "interfaceId",
          "type": "bytes4"
        }
      ],
      "name": "supportsInterface",
      "outputs": [
        {
          "internalType": "bool",
          "name": "",
          "type": "bool"
        }
      ],
      "stateMutability": "view",
      "type": "function"
    },
    {
      "inputs": [],
      "name": "symbol",
      "outputs": [
        {
          "internalType": "string",
          "name": "",
          "type": "string"
        }
      ],
      "stateMutability": "view",
      "type": "function"
    },
    {
      "inputs": [
        {
          "internalType": "uint256",
          "name": "tokenId",
          "type": "uint256"
        }
      ],
      "name": "tokenURI",
      "outputs": [
        {
          "internalType": "string",
          "name": "",
          "type": "string"
        }
      ],
      "stateMutability": "view",
      "type": "function"
    },
    {
      "inputs": [
        {
          "internalType": "address",
          "name": "from",
          "type": "address"
        },
        {
          "internalType": "address",
          "name": "to",
          "type": "address"
        },
        {
          "internalType": "uint256",
          "name": "tokenId",
          "type": "uint256"
        }
      ],
      "name": "transferFrom",
      "outputs": [],
      "stateMutability": "nonpayable",
      "type": "function"
    },
    {
      "inputs": [
        {
          "internalType": "address",
          "name": "newOwner",
          "type": "address"
        }
      ],
      "name": "transferOwnership",
      "outputs": [],
      "stateMutability": "nonpayable",
      "type": "function"
    }
  ],
  "bytecode": "0x6080604052600060085560056009556014600a553480156200002057600080fd5b50336040518060400160405280600981526020017f4275794d79526f6f6d00000000000000000000000000000000000000000000008152506040518060400160405280600381526020017f424d52000000000000000000000000000000000000000000000000000000000081525081600090816200009f919062000619565b508060019081620000b1919062000619565b505050600073ffffffffffffffffffffffffffffffffffffffff168173ffffffffffffffffffffffffffffffffffffffff1603620001295760006040517f1e4fbdf700000000000000000000000000000000000000000000000000000000815260040162000120919062000745565b60405180910390fd5b6200013a81620001c960201b60201c565b5033600b60006101000a81548173ffffffffffffffffffffffffffffffffffffffff021916908373ffffffffffffffffffffffffffffffffffffffff160217905550620001c36040518060400160405280601881526020017f436f6e7472616374206465706c6f7965642062793a2025730000000000000000815250336200028f60201b60201c565b62000854565b6000600660009054906101000a900473ffffffffffffffffffffffffffffffffffffffff16905081600660006101000a81548173ffffffffffffffffffffffffffffffffffffffff021916908373ffffffffffffffffffffffffffffffffffffffff1602179055508173ffffffffffffffffffffffffffffffffffffffff168173ffffffffffffffffffffffffffffffffffffffff167f8be0079c531659141344cd1fd0a4f28419497f9722a3daafe3b4186f6b6457e060405160405180910390a35050565b620003318282604051602401620002a8929190620007f1565b6040516020818303038152906040527f319af333000000000000000000000000000000000000000000000000000000007bffffffffffffffffffffffffffffffffffffffffffffffffffffffff19166020820180517bffffffffffffffffffffffffffffffffffffffffffffffffffffffff83818316178352505050506200033560201b60201c565b5050565b6200035b81620003566200035e60201b62001a26176200037f60201b60201c565b60201c565b50565b60006a636f6e736f6c652e6c6f679050600080835160208501845afa505050565b6200039360201b62002d8217819050919050565b6200039d62000825565b565b600081519050919050565b7f4e487b7100000000000000000000000000000000000000000000000000000000600052604160045260246000fd5b7f4e487b7100000000000000000000000000000000000000000000000000000000600052602260045260246000fd5b600060028204905060018216806200042157607f821691505b602082108103620004375762000436620003d9565b5b50919050565b60008190508160005260206000209050919050565b60006020601f8301049050919050565b600082821b905092915050565b600060088302620004a17fffffffffffffffffffffffffffffffffffffffffffffffffffffffffffffffff8262000462565b620004ad868362000462565b95508019841693508086168417925050509392505050565b6000819050919050565b6000819050919050565b6000620004fa620004f4620004ee84620004c5565b620004cf565b620004c5565b9050919050565b6000819050919050565b6200051683620004d9565b6200052e620005258262000501565b8484546200046f565b825550505050565b600090565b6200054562000536565b620005528184846200050b565b505050565b5b818110156200057a576200056e6000826200053b565b60018101905062000558565b5050565b601f821115620005c95762000593816200043d565b6200059e8462000452565b81016020851015620005ae578190505b620005c6620005bd8562000452565b83018262000557565b50505b505050565b600082821c905092915050565b6000620005ee60001984600802620005ce565b1980831691505092915050565b6000620006098383620005db565b9150826002028217905092915050565b62000624826200039f565b67ffffffffffffffff81111562000640576200063f620003aa565b5b6200064c825462000408565b620006598282856200057e565b600060209050601f8311600181146200069157600084156200067c578287015190505b620006888582620005fb565b865550620006f8565b601f198416620006a1866200043d565b60005b82811015620006cb57848901518255600182019150602085019450602081019050620006a4565b86831015620006eb5784890151620006e7601f891682620005db565b8355505b6001600288020188555050505b505050505050565b600073ffffffffffffffffffffffffffffffffffffffff82169050919050565b60006200072d8262000700565b9050919050565b6200073f8162000720565b82525050565b60006020820190506200075c600083018462000734565b92915050565b600082825260208201905092915050565b60005b838110156200079357808201518184015260208101905062000776565b60008484015250505050565b6000601f19601f8301169050919050565b6000620007bd826200039f565b620007c9818562000762565b9350620007db81856020860162000773565b620007e6816200079f565b840191505092915050565b600060408201905081810360008301526200080d8185620007b0565b90506200081e602083018462000734565b9392505050565b7f4e487b7100000000000000000000000000000000000000000000000000000000600052605160045260246000fd5b613d3880620008646000396000f3fe6080604052600436106101b75760003560e01c8063a001ecdd116100ec578063bf654aac1161008a578063e985e9c511610064578063e985e9c514610625578063eddc426914610662578063f2fde38b1461067e578063f364333d146106a7576101b7565b8063bf654aac14610592578063c87b56dd146105bd578063d5009584146105fa576101b7565b8063aeda852f116100c6578063aeda852f146104d3578063b14f1afd14610513578063b54230c91461053e578063b88d4fde14610569576101b7565b8063a001ecdd14610442578063a22cb4651461046d578063ad50f56d14610496576101b7565b80636352211e11610159578063819782b311610133578063819782b3146103985780638da5cb5b146103c357806395d89b41146103ee57806399b2317814610419576101b7565b80636352211e1461030757806370a0823114610344578063715018a614610381576101b7565b8063095ea7b311610195578063095ea7b31461026157806323b872dd1461028a57806342842e0e146102b3578063481c6a75146102dc576101b7565b806301ffc9a7146101bc57806306fdde03146101f9578063081812fc14610224575b600080fd5b3480156101c857600080fd5b506101e360048036038101906101de9190612e7f565b6106d2565b6040516101f09190612ec7565b60405180910390f35b34801561020557600080fd5b5061020e6107b4565b60405161021b9190612f72565b60405180910390f35b34801561023057600080fd5b5061024b60048036038101906102469190612fca565b610846565b6040516102589190613038565b60405180910390f35b34801561026d57600080fd5b506102886004803603810190610283919061307f565b610862565b005b34801561029657600080fd5b506102b160048036038101906102ac91906130bf565b610878565b005b3480156102bf57600080fd5b506102da60048036038101906102d591906130bf565b61097a565b005b3480156102e857600080fd5b506102f161099a565b6040516102fe9190613038565b60405180910390f35b34801561031357600080fd5b5061032e60048036038101906103299190612fca565b6109c0565b60405161033b9190613038565b60405180910390f35b34801561035057600080fd5b5061036b60048036038101906103669190613112565b6109d2565b604051610378919061314e565b60405180910390f35b34801561038d57600080fd5b50610396610a8c565b005b3480156103a457600080fd5b506103ad610aa0565b6040516103ba91906132ad565b60405180910390f35b3480156103cf57600080fd5b506103d8610d16565b6040516103e59190613038565b60405180910390f35b3480156103fa57600080fd5b50610403610d40565b6040516104109190612f72565b60405180910390f35b34801561042557600080fd5b50610440600480360381019061043b91906132cf565b610dd2565b005b34801561044e57600080fd5b50610457610f10565b604051610464919061314e565b60405180910390f35b34801561047957600080fd5b50610494600480360381019061048f919061333b565b610f16565b005b3480156104a257600080fd5b506104bd60048036038101906104b89190612fca565b610f2c565b6040516104ca91906133d0565b60405180910390f35b3480156104df57600080fd5b506104fa60048036038101906104f59190612fca565b61101d565b60405161050a94939291906133eb565b60405180910390f35b34801561051f57600080fd5b5061052861107a565b60405161053591906132ad565b60405180910390f35b34801561054a57600080fd5b50610553611370565b604051610560919061314e565b60405180910390f35b34801561057557600080fd5b50610590600480360381019061058b9190613565565b611376565b005b34801561059e57600080fd5b506105a7611393565b6040516105b4919061314e565b60405180910390f35b3480156105c957600080fd5b506105e460048036038101906105df9190612fca565b611399565b6040516105f19190612f72565b60405180910390f35b34801561060657600080fd5b5061060f611402565b60405161061c9190613038565b60405180910390f35b34801561063157600080fd5b5061064c600480360381019061064791906135e8565b61142c565b6040516106599190612ec7565b60405180910390f35b61067c60048036038101906106779190612fca565b6114c0565b005b34801561068a57600080fd5b506106a560048036038101906106a09190613112565b611867565b005b3480156106b357600080fd5b506106bc6118ed565b6040516106c9919061314e565b60405180910390f35b60007f80ac58cd000000000000000000000000000000000000000000000000000000007bffffffffffffffffffffffffffffffffffffffffffffffffffffffff1916827bffffffffffffffffffffffffffffffffffffffffffffffffffffffff1916148061079d57507f5b5e139f000000000000000000000000000000000000000000000000000000007bffffffffffffffffffffffffffffffffffffffffffffffffffffffff1916827bffffffffffffffffffffffffffffffffffffffffffffffffffffffff1916145b806107ad57506107ac82611a47565b5b9050919050565b6060600080546107c390613657565b80601f01602080910402602001604051908101604052809291908181526020018280546107ef90613657565b801561083c5780601f106108115761010080835404028352916020019161083c565b820191906000526020600020905b81548152906001019060200180831161081f57829003601f168201915b5050505050905090565b600061085182611ab1565b5061085b82611b39565b9050919050565b610874828261086f611b76565b611b7e565b5050565b600073ffffffffffffffffffffffffffffffffffffffff168273ffffffffffffffffffffffffffffffffffffffff16036108ea5760006040517f64a0ae920000000000000000000000000000000000000000000000000000000081526004016108e19190613038565b60405180910390fd5b60006108fe83836108f9611b76565b611b90565b90508373ffffffffffffffffffffffffffffffffffffffff168173ffffffffffffffffffffffffffffffffffffffff1614610974578382826040517f64283d7b00000000000000000000000000000000000000000000000000000000815260040161096b93929190613688565b60405180910390fd5b50505050565b61099583838360405180602001604052806000815250611376565b505050565b600b60009054906101000a900473ffffffffffffffffffffffffffffffffffffffff1681565b60006109cb82611ab1565b9050919050565b60008073ffffffffffffffffffffffffffffffffffffffff168273ffffffffffffffffffffffffffffffffffffffff1603610a455760006040517f89c62b64000000000000000000000000000000000000000000000000000000008152600401610a3c9190613038565b60405180910390fd5b600360008373ffffffffffffffffffffffffffffffffffffffff1673ffffffffffffffffffffffffffffffffffffffff168152602001908152602001600020549050919050565b610a94611daa565b610a9e6000611e31565b565b60606000805b600854811015610afb576007600082815260200190815260200160002060030160009054906101000a900460ff1615610ae8578180610ae4906136ee565b9250505b8080610af3906136ee565b915050610aa6565b5060008167ffffffffffffffff811115610b1857610b1761343a565b5b604051908082528060200260200182016040528015610b5157816020015b610b3e612d8c565b815260200190600190039081610b365790505b5090506000610b956040518060400160405280600881526020017f557365723a20257300000000000000000000000000000000000000000000000081525033611ef7565b60005b600854811015610d0c576007600082815260200190815260200160002060030160009054906101000a900460ff1615610cf9576040518060a001604052808281526020016007600084815260200190815260200160002060000160009054906101000a900473ffffffffffffffffffffffffffffffffffffffff1673ffffffffffffffffffffffffffffffffffffffff16815260200160076000848152602001908152602001600020600101548152602001600760008481526020019081526020016000206002015481526020016007600084815260200190815260200160002060030160009054906101000a900460ff161515815250838380610c9b906136ee565b945081518110610cae57610cad613736565b5b6020026020010181905250610cf86040518060400160405280601581526020017f466f756e64206c697374656420686f757365202573000000000000000000000081525082611f93565b5b8080610d04906136ee565b915050610b98565b5081935050505090565b6000600660009054906101000a900473ffffffffffffffffffffffffffffffffffffffff16905090565b606060018054610d4f90613657565b80601f0160208091040260200160405190810160405280929190818152602001828054610d7b90613657565b8015610dc85780601f10610d9d57610100808354040283529160200191610dc8565b820191906000526020600020905b815481529060010190602001808311610dab57829003601f168201915b5050505050905090565b3373ffffffffffffffffffffffffffffffffffffffff16610df2836109c0565b73ffffffffffffffffffffffffffffffffffffffff1614610e48576040517f08c379a0000000000000000000000000000000000000000000000000000000008152600401610e3f906137b1565b60405180910390fd5b80600760008481526020019081526020016000206001018190555042600760008481526020019081526020016000206002018190555060016007600084815260200190815260200160002060030160006101000a81548160ff0219169083151502179055507f60b3e540896cf4a419e7b7274a1f1282223f5d92ca6f0152cf820fe457fb4843828233604051610ee0939291906137d1565b60405180910390a1610f0c604051806060016040528060228152602001613cbf6022913983833361202f565b5050565b60095481565b610f28610f21611b76565b83836120d1565b5050565b610f34612dd3565b610f736040518060400160405280601a81526020017f4665746368696e6720696e666f20666f7220686f75736520257300000000000081525083611f93565b600760008381526020019081526020016000206040518060800160405290816000820160009054906101000a900473ffffffffffffffffffffffffffffffffffffffff1673ffffffffffffffffffffffffffffffffffffffff1673ffffffffffffffffffffffffffffffffffffffff16815260200160018201548152602001600282015481526020016003820160009054906101000a900460ff1615151515815250509050919050565b60076020528060005260406000206000915090508060000160009054906101000a900473ffffffffffffffffffffffffffffffffffffffff16908060010154908060020154908060030160009054906101000a900460ff16905084565b60606000805b600854811015611115573373ffffffffffffffffffffffffffffffffffffffff166007600083815260200190815260200160002060000160009054906101000a900473ffffffffffffffffffffffffffffffffffffffff1673ffffffffffffffffffffffffffffffffffffffff16036111025781806110fe906136ee565b9250505b808061110d906136ee565b915050611080565b5060008167ffffffffffffffff8111156111325761113161343a565b5b60405190808252806020026020018201604052801561116b57816020015b611158612d8c565b8152602001906001900390816111505790505b50905060006111af6040518060400160405280600881526020017f557365723a20257300000000000000000000000000000000000000000000000081525033611ef7565b60005b600854811015611366573373ffffffffffffffffffffffffffffffffffffffff166007600083815260200190815260200160002060000160009054906101000a900473ffffffffffffffffffffffffffffffffffffffff1673ffffffffffffffffffffffffffffffffffffffff1603611353576040518060a001604052808281526020016007600084815260200190815260200160002060000160009054906101000a900473ffffffffffffffffffffffffffffffffffffffff1673ffffffffffffffffffffffffffffffffffffffff16815260200160076000848152602001908152602001600020600101548152602001600760008481526020019081526020016000206002015481526020016007600084815260200190815260200160002060030160009054906101000a900460ff1615158152508383806112f5906136ee565b94508151811061130857611307613736565b5b60200260200101819052506113526040518060400160405280601781526020017f466f756e6420686f75736520666f72207573657220257300000000000000000081525082611f93565b5b808061135e906136ee565b9150506111b2565b5081935050505090565b60085481565b611381848484610878565b61138d84848484612240565b50505050565b600a5481565b60606113a482611ab1565b5060006113af6123f7565b905060008151116113cf57604051806020016040528060008152506113fa565b806113d98461240e565b6040516020016113ea929190613844565b6040516020818303038152906040525b915050919050565b6000600b60009054906101000a900473ffffffffffffffffffffffffffffffffffffffff16905090565b6000600560008473ffffffffffffffffffffffffffffffffffffffff1673ffffffffffffffffffffffffffffffffffffffff16815260200190815260200160002060008373ffffffffffffffffffffffffffffffffffffffff1673ffffffffffffffffffffffffffffffffffffffff16815260200190815260200160002060009054906101000a900460ff16905092915050565b6000600760008381526020019081526020016000206040518060800160405290816000820160009054906101000a900473ffffffffffffffffffffffffffffffffffffffff1673ffffffffffffffffffffffffffffffffffffffff1673ffffffffffffffffffffffffffffffffffffffff16815260200160018201548152602001600282015481526020016003820160009054906101000a900460ff161515151581525050905080606001516115ab576040517f08c379a00000000000000000000000000000000000000000000000000000000081526004016115a2906138b4565b60405180910390fd5b80602001513410156115f2576040517f08c379a00000000000000000000000000000000000000000000000000000000081526004016115e990613920565b60405180910390fd5b611616604051806060016040528060228152602001613ce1602291398333346124dc565b60008160400151426116289190613940565b905060006103e88360200151600954846116429190613974565b61164c9190613974565b61165691906139e5565b905060006064600a54856020015161166e9190613974565b61167891906139e5565b905080821115611686578091505b611699611692866109c0565b338761257e565b600b60009054906101000a900473ffffffffffffffffffffffffffffffffffffffff1673ffffffffffffffffffffffffffffffffffffffff166108fc839081150290604051600060405180830381858888f19350505050158015611701573d6000803e3d6000fd5b50836000015173ffffffffffffffffffffffffffffffffffffffff166108fc8386602001516117309190613940565b9081150290604051600060405180830381858888f1935050505015801561175b573d6000803e3d6000fd5b50336007600087815260200190815260200160002060000160006101000a81548173ffffffffffffffffffffffffffffffffffffffff021916908373ffffffffffffffffffffffffffffffffffffffff16021790555060006007600087815260200190815260200160002060030160006101000a81548160ff0219169083151502179055507f7d8ae52f455fef56a09ce9edb1dc811247eeee52705033ef77eb1dbf84fb9cbd8533866020015160405161181793929190613a16565b60405180910390a16118606040518060400160405280601f81526020017f486f75736520736f6c6420257320746f202573207769746820666565202573008152508633856124dc565b5050505050565b61186f611daa565b600073ffffffffffffffffffffffffffffffffffffffff168173ffffffffffffffffffffffffffffffffffffffff16036118e15760006040517f1e4fbdf70000000000000000000000000000000000000000000000000000000081526004016118d89190613038565b60405180910390fd5b6118ea81611e31565b50565b60008060086000815480929190611903906136ee565b91905055905061191333826126eb565b60405180608001604052803373ffffffffffffffffffffffffffffffffffffffff16815260200160008152602001428152602001600015158152506007600083815260200190815260200160002060008201518160000160006101000a81548173ffffffffffffffffffffffffffffffffffffffff021916908373ffffffffffffffffffffffffffffffffffffffff160217905550602082015181600101556040820151816002015560608201518160030160006101000a81548160ff021916908315150217905550905050611a1f6040518060400160405280601581526020017f486f757365206d696e746564202573206279202573000000000000000000000081525082336127e4565b8091505090565b60006a636f6e736f6c652e6c6f679050600080835160208501845afa505050565b60007f01ffc9a7000000000000000000000000000000000000000000000000000000007bffffffffffffffffffffffffffffffffffffffffffffffffffffffff1916827bffffffffffffffffffffffffffffffffffffffffffffffffffffffff1916149050919050565b600080611abd83612883565b9050600073ffffffffffffffffffffffffffffffffffffffff168173ffffffffffffffffffffffffffffffffffffffff1603611b3057826040517f7e273289000000000000000000000000000000000000000000000000000000008152600401611b27919061314e565b60405180910390fd5b80915050919050565b60006004600083815260200190815260200160002060009054906101000a900473ffffffffffffffffffffffffffffffffffffffff169050919050565b600033905090565b611b8b83838360016128c0565b505050565b600080611b9c84612883565b9050600073ffffffffffffffffffffffffffffffffffffffff168373ffffffffffffffffffffffffffffffffffffffff1614611bde57611bdd818486612a85565b5b600073ffffffffffffffffffffffffffffffffffffffff168173ffffffffffffffffffffffffffffffffffffffff1614611c6f57611c206000856000806128c0565b6001600360008373ffffffffffffffffffffffffffffffffffffffff1673ffffffffffffffffffffffffffffffffffffffff168152602001908152602001600020600082825403925050819055505b600073ffffffffffffffffffffffffffffffffffffffff168573ffffffffffffffffffffffffffffffffffffffff1614611cf2576001600360008773ffffffffffffffffffffffffffffffffffffffff1673ffffffffffffffffffffffffffffffffffffffff168152602001908152602001600020600082825401925050819055505b846002600086815260200190815260200160002060006101000a81548173ffffffffffffffffffffffffffffffffffffffff021916908373ffffffffffffffffffffffffffffffffffffffff160217905550838573ffffffffffffffffffffffffffffffffffffffff168273ffffffffffffffffffffffffffffffffffffffff167fddf252ad1be2c89b69c2b068fc378daa952ba7f163c4a11628f55a4df523b3ef60405160405180910390a4809150509392505050565b611db2611b76565b73ffffffffffffffffffffffffffffffffffffffff16611dd0610d16565b73ffffffffffffffffffffffffffffffffffffffff1614611e2f57611df3611b76565b6040517f118cdaa7000000000000000000000000000000000000000000000000000000008152600401611e269190613038565b60405180910390fd5b565b6000600660009054906101000a900473ffffffffffffffffffffffffffffffffffffffff16905081600660006101000a81548173ffffffffffffffffffffffffffffffffffffffff021916908373ffffffffffffffffffffffffffffffffffffffff1602179055508173ffffffffffffffffffffffffffffffffffffffff168173ffffffffffffffffffffffffffffffffffffffff167f8be0079c531659141344cd1fd0a4f28419497f9722a3daafe3b4186f6b6457e060405160405180910390a35050565b611f8f8282604051602401611f0d929190613a4d565b6040516020818303038152906040527f319af333000000000000000000000000000000000000000000000000000000007bffffffffffffffffffffffffffffffffffffffffffffffffffffffff19166020820180517bffffffffffffffffffffffffffffffffffffffffffffffffffffffff8381831617835250505050612b49565b5050565b61202b8282604051602401611fa9929190613a7d565b6040516020818303038152906040527fb60e72cc000000000000000000000000000000000000000000000000000000007bffffffffffffffffffffffffffffffffffffffffffffffffffffffff19166020820180517bffffffffffffffffffffffffffffffffffffffffffffffffffffffff8381831617835250505050612b49565b5050565b6120cb848484846040516024016120499493929190613aad565b6040516020818303038152906040527fe21de278000000000000000000000000000000000000000000000000000000007bffffffffffffffffffffffffffffffffffffffffffffffffffffffff19166020820180517bffffffffffffffffffffffffffffffffffffffffffffffffffffffff8381831617835250505050612b49565b50505050565b600073ffffffffffffffffffffffffffffffffffffffff168273ffffffffffffffffffffffffffffffffffffffff160361214257816040517f5b08ba180000000000000000000000000000000000000000000000000000000081526004016121399190613038565b60405180910390fd5b80600560008573ffffffffffffffffffffffffffffffffffffffff1673ffffffffffffffffffffffffffffffffffffffff16815260200190815260200160002060008473ffffffffffffffffffffffffffffffffffffffff1673ffffffffffffffffffffffffffffffffffffffff16815260200190815260200160002060006101000a81548160ff0219169083151502179055508173ffffffffffffffffffffffffffffffffffffffff168373ffffffffffffffffffffffffffffffffffffffff167f17307eab39ab6107e8899845ad3d59bd9653f200f220920489ca2b5937696c31836040516122339190612ec7565b60405180910390a3505050565b60008373ffffffffffffffffffffffffffffffffffffffff163b11156123f1578273ffffffffffffffffffffffffffffffffffffffff1663150b7a02612284611b76565b8685856040518563ffffffff1660e01b81526004016122a69493929190613b4e565b6020604051808303816000875af19250505080156122e257506040513d601f19601f820116820180604052508101906122df9190613baf565b60015b612366573d8060008114612312576040519150601f19603f3d011682016040523d82523d6000602084013e612317565b606091505b50600081510361235e57836040517f64a0ae920000000000000000000000000000000000000000000000000000000081526004016123559190613038565b60405180910390fd5b805181602001fd5b63150b7a0260e01b7bffffffffffffffffffffffffffffffffffffffffffffffffffffffff1916817bffffffffffffffffffffffffffffffffffffffffffffffffffffffff1916146123ef57836040517f64a0ae920000000000000000000000000000000000000000000000000000000081526004016123e69190613038565b60405180910390fd5b505b50505050565b606060405180602001604052806000815250905090565b60606000600161241d84612b63565b01905060008167ffffffffffffffff81111561243c5761243b61343a565b5b6040519080825280601f01601f19166020018201604052801561246e5781602001600182028036833780820191505090505b509050600082602001820190505b6001156124d1578080600190039150507f3031323334353637383961626364656600000000000000000000000000000000600a86061a8153600a85816124c5576124c46139b6565b5b0494506000850361247c575b819350505050919050565b612578848484846040516024016124f69493929190613bdc565b6040516020818303038152906040527f4f04fdc6000000000000000000000000000000000000000000000000000000007bffffffffffffffffffffffffffffffffffffffffffffffffffffffff19166020820180517bffffffffffffffffffffffffffffffffffffffffffffffffffffffff8381831617835250505050612b49565b50505050565b600073ffffffffffffffffffffffffffffffffffffffff168273ffffffffffffffffffffffffffffffffffffffff16036125f05760006040517f64a0ae920000000000000000000000000000000000000000000000000000000081526004016125e79190613038565b60405180910390fd5b60006125fe83836000611b90565b9050600073ffffffffffffffffffffffffffffffffffffffff168173ffffffffffffffffffffffffffffffffffffffff160361267157816040517f7e273289000000000000000000000000000000000000000000000000000000008152600401612668919061314e565b60405180910390fd5b8373ffffffffffffffffffffffffffffffffffffffff168173ffffffffffffffffffffffffffffffffffffffff16146126e5578382826040517f64283d7b0000000000000000000000000000000000000000000000000000000081526004016126dc93929190613688565b60405180910390fd5b50505050565b600073ffffffffffffffffffffffffffffffffffffffff168273ffffffffffffffffffffffffffffffffffffffff160361275d5760006040517f64a0ae920000000000000000000000000000000000000000000000000000000081526004016127549190613038565b60405180910390fd5b600061276b83836000611b90565b9050600073ffffffffffffffffffffffffffffffffffffffff168173ffffffffffffffffffffffffffffffffffffffff16146127df5760006040517f73c6ac6e0000000000000000000000000000000000000000000000000000000081526004016127d69190613038565b60405180910390fd5b505050565b61287e8383836040516024016127fc93929190613c28565b6040516020818303038152906040527f1c7ec448000000000000000000000000000000000000000000000000000000007bffffffffffffffffffffffffffffffffffffffffffffffffffffffff19166020820180517bffffffffffffffffffffffffffffffffffffffffffffffffffffffff8381831617835250505050612b49565b505050565b60006002600083815260200190815260200160002060009054906101000a900473ffffffffffffffffffffffffffffffffffffffff169050919050565b80806128f95750600073ffffffffffffffffffffffffffffffffffffffff168273ffffffffffffffffffffffffffffffffffffffff1614155b15612a2d57600061290984611ab1565b9050600073ffffffffffffffffffffffffffffffffffffffff168373ffffffffffffffffffffffffffffffffffffffff161415801561297457508273ffffffffffffffffffffffffffffffffffffffff168173ffffffffffffffffffffffffffffffffffffffff1614155b80156129875750612985818461142c565b155b156129c957826040517fa9fbf51f0000000000000000000000000000000000000000000000000000000081526004016129c09190613038565b60405180910390fd5b8115612a2b57838573ffffffffffffffffffffffffffffffffffffffff168273ffffffffffffffffffffffffffffffffffffffff167f8c5be1e5ebec7d5bd14f71427d1e84f3dd0314c0f7b2291e5b200ac8c7c3b92560405160405180910390a45b505b836004600085815260200190815260200160002060006101000a81548173ffffffffffffffffffffffffffffffffffffffff021916908373ffffffffffffffffffffffffffffffffffffffff16021790555050505050565b612a90838383612cb6565b612b4457600073ffffffffffffffffffffffffffffffffffffffff168373ffffffffffffffffffffffffffffffffffffffff1603612b0557806040517f7e273289000000000000000000000000000000000000000000000000000000008152600401612afc919061314e565b60405180910390fd5b81816040517f177e802f000000000000000000000000000000000000000000000000000000008152600401612b3b929190613c66565b60405180910390fd5b505050565b612b6081612b58611a26612d77565b63ffffffff16565b50565b600080600090507a184f03e93ff9f4daa797ed6e38ed64bf6a1f0100000000000000008310612bc1577a184f03e93ff9f4daa797ed6e38ed64bf6a1f0100000000000000008381612bb757612bb66139b6565b5b0492506040810190505b6d04ee2d6d415b85acef81000000008310612bfe576d04ee2d6d415b85acef81000000008381612bf457612bf36139b6565b5b0492506020810190505b662386f26fc100008310612c2d57662386f26fc100008381612c2357612c226139b6565b5b0492506010810190505b6305f5e1008310612c56576305f5e1008381612c4c57612c4b6139b6565b5b0492506008810190505b6127108310612c7b576127108381612c7157612c706139b6565b5b0492506004810190505b60648310612c9e5760648381612c9457612c936139b6565b5b0492506002810190505b600a8310612cad576001810190505b80915050919050565b60008073ffffffffffffffffffffffffffffffffffffffff168373ffffffffffffffffffffffffffffffffffffffff1614158015612d6e57508273ffffffffffffffffffffffffffffffffffffffff168473ffffffffffffffffffffffffffffffffffffffff161480612d2f5750612d2e848461142c565b5b80612d6d57508273ffffffffffffffffffffffffffffffffffffffff16612d5583611b39565b73ffffffffffffffffffffffffffffffffffffffff16145b5b90509392505050565b612d82819050919050565b612d8a613c8f565b565b6040518060a0016040528060008152602001600073ffffffffffffffffffffffffffffffffffffffff16815260200160008152602001600081526020016000151581525090565b6040518060800160405280600073ffffffffffffffffffffffffffffffffffffffff16815260200160008152602001600081526020016000151581525090565b6000604051905090565b600080fd5b600080fd5b60007fffffffff0000000000000000000000000000000000000000000000000000000082169050919050565b612e5c81612e27565b8114612e6757600080fd5b50565b600081359050612e7981612e53565b92915050565b600060208284031215612e9557612e94612e1d565b5b6000612ea384828501612e6a565b91505092915050565b60008115159050919050565b612ec181612eac565b82525050565b6000602082019050612edc6000830184612eb8565b92915050565b600081519050919050565b600082825260208201905092915050565b60005b83811015612f1c578082015181840152602081019050612f01565b60008484015250505050565b6000601f19601f8301169050919050565b6000612f4482612ee2565b612f4e8185612eed565b9350612f5e818560208601612efe565b612f6781612f28565b840191505092915050565b60006020820190508181036000830152612f8c8184612f39565b905092915050565b6000819050919050565b612fa781612f94565b8114612fb257600080fd5b50565b600081359050612fc481612f9e565b92915050565b600060208284031215612fe057612fdf612e1d565b5b6000612fee84828501612fb5565b91505092915050565b600073ffffffffffffffffffffffffffffffffffffffff82169050919050565b600061302282612ff7565b9050919050565b61303281613017565b82525050565b600060208201905061304d6000830184613029565b92915050565b61305c81613017565b811461306757600080fd5b50565b60008135905061307981613053565b92915050565b6000806040838503121561309657613095612e1d565b5b60006130a48582860161306a565b92505060206130b585828601612fb5565b9150509250929050565b6000806000606084860312156130d8576130d7612e1d565b5b60006130e68682870161306a565b93505060206130f78682870161306a565b925050604061310886828701612fb5565b9150509250925092565b60006020828403121561312857613127612e1d565b5b60006131368482850161306a565b91505092915050565b61314881612f94565b82525050565b6000602082019050613163600083018461313f565b92915050565b600081519050919050565b600082825260208201905092915050565b6000819050602082019050919050565b61319e81612f94565b82525050565b6131ad81613017565b82525050565b6131bc81612eac565b82525050565b60a0820160008201516131d86000850182613195565b5060208201516131eb60208501826131a4565b5060408201516131fe6040850182613195565b5060608201516132116060850182613195565b50608082015161322460808501826131b3565b50505050565b600061323683836131c2565b60a08301905092915050565b6000602082019050919050565b600061325a82613169565b6132648185613174565b935061326f83613185565b8060005b838110156132a0578151613287888261322a565b975061329283613242565b925050600181019050613273565b5085935050505092915050565b600060208201905081810360008301526132c7818461324f565b905092915050565b600080604083850312156132e6576132e5612e1d565b5b60006132f485828601612fb5565b925050602061330585828601612fb5565b9150509250929050565b61331881612eac565b811461332357600080fd5b50565b6000813590506133358161330f565b92915050565b6000806040838503121561335257613351612e1d565b5b60006133608582860161306a565b925050602061337185828601613326565b9150509250929050565b60808201600082015161339160008501826131a4565b5060208201516133a46020850182613195565b5060408201516133b76040850182613195565b5060608201516133ca60608501826131b3565b50505050565b60006080820190506133e5600083018461337b565b92915050565b60006080820190506134006000830187613029565b61340d602083018661313f565b61341a604083018561313f565b6134276060830184612eb8565b95945050505050565b600080fd5b600080fd5b7f4e487b7100000000000000000000000000000000000000000000000000000000600052604160045260246000fd5b61347282612f28565b810181811067ffffffffffffffff821117156134915761349061343a565b5b80604052505050565b60006134a4612e13565b90506134b08282613469565b919050565b600067ffffffffffffffff8211156134d0576134cf61343a565b5b6134d982612f28565b9050602081019050919050565b82818337600083830152505050565b6000613508613503846134b5565b61349a565b90508281526020810184848401111561352457613523613435565b5b61352f8482856134e6565b509392505050565b600082601f83011261354c5761354b613430565b5b813561355c8482602086016134f5565b91505092915050565b6000806000806080858703121561357f5761357e612e1d565b5b600061358d8782880161306a565b945050602061359e8782880161306a565b93505060406135af87828801612fb5565b925050606085013567ffffffffffffffff8111156135d0576135cf612e22565b5b6135dc87828801613537565b91505092959194509250565b600080604083850312156135ff576135fe612e1d565b5b600061360d8582860161306a565b925050602061361e8582860161306a565b9150509250929050565b7f4e487b7100000000000000000000000000000000000000000000000000000000600052602260045260246000fd5b6000600282049050600182168061366f57607f821691505b60208210810361368257613681613628565b5b50919050565b600060608201905061369d6000830186613029565b6136aa602083018561313f565b6136b76040830184613029565b949350505050565b7f4e487b7100000000000000000000000000000000000000000000000000000000600052601160045260246000fd5b60006136f982612f94565b91507fffffffffffffffffffffffffffffffffffffffffffffffffffffffffffffffff820361372b5761372a6136bf565b5b600182019050919050565b7f4e487b7100000000000000000000000000000000000000000000000000000000600052603260045260246000fd5b7f4e6f7420746865206f776e657200000000000000000000000000000000000000600082015250565b600061379b600d83612eed565b91506137a682613765565b602082019050919050565b600060208201905081810360008301526137ca8161378e565b9050919050565b60006060820190506137e6600083018661313f565b6137f3602083018561313f565b6138006040830184613029565b949350505050565b600081905092915050565b600061381e82612ee2565b6138288185613808565b9350613838818560208601612efe565b80840191505092915050565b60006138508285613813565b915061385c8284613813565b91508190509392505050565b7f486f757365206e6f7420666f722073616c650000000000000000000000000000600082015250565b600061389e601283612eed565b91506138a982613868565b602082019050919050565b600060208201905081810360008301526138cd81613891565b9050919050565b7f496e73756666696369656e742066756e64730000000000000000000000000000600082015250565b600061390a601283612eed565b9150613915826138d4565b602082019050919050565b60006020820190508181036000830152613939816138fd565b9050919050565b600061394b82612f94565b915061395683612f94565b925082820390508181111561396e5761396d6136bf565b5b92915050565b600061397f82612f94565b915061398a83612f94565b925082820261399881612f94565b915082820484148315176139af576139ae6136bf565b5b5092915050565b7f4e487b7100000000000000000000000000000000000000000000000000000000600052601260045260246000fd5b60006139f082612f94565b91506139fb83612f94565b925082613a0b57613a0a6139b6565b5b828204905092915050565b6000606082019050613a2b600083018661313f565b613a386020830185613029565b613a45604083018461313f565b949350505050565b60006040820190508181036000830152613a678185612f39565b9050613a766020830184613029565b9392505050565b60006040820190508181036000830152613a978185612f39565b9050613aa6602083018461313f565b9392505050565b60006080820190508181036000830152613ac78187612f39565b9050613ad6602083018661313f565b613ae3604083018561313f565b613af06060830184613029565b95945050505050565b600081519050919050565b600082825260208201905092915050565b6000613b2082613af9565b613b2a8185613b04565b9350613b3a818560208601612efe565b613b4381612f28565b840191505092915050565b6000608082019050613b636000830187613029565b613b706020830186613029565b613b7d604083018561313f565b8181036060830152613b8f8184613b15565b905095945050505050565b600081519050613ba981612e53565b92915050565b600060208284031215613bc557613bc4612e1d565b5b6000613bd384828501613b9a565b91505092915050565b60006080820190508181036000830152613bf68187612f39565b9050613c05602083018661313f565b613c126040830185613029565b613c1f606083018461313f565b95945050505050565b60006060820190508181036000830152613c428186612f39565b9050613c51602083018561313f565b613c5e6040830184613029565b949350505050565b6000604082019050613c7b6000830185613029565b613c88602083018461313f565b9392505050565b7f4e487b7100000000000000000000000000000000000000000000000000000000600052605160045260246000fdfe486f757365206c697374656420257320666f7220707269636520257320627920257342757920686f7573652025732062792025732077697468207061796d656e74202573a2646970667358221220f3b0075e1358d295eb81d8f780684f8ab92fd290704b2da0f576c6ef51bbbeaa64736f6c63430008140033",
  "linkReferences": {},
  "deployedLinkReferences": {}
}