{
  "_format": "hh-sol-artifact-1",
  "contractName": "BuyMyRoom",
  "sourceName": "contracts/BuyMyRoom.sol",
  "abi": [
    {
      "inputs": [],
      "stateMutability": "nonpayable",
      "type": "constructor"
    },
    {
      "inputs": [
        {
          "internalType": "address",
          "name": "sender",
          "type": "address"
        },
        {
          "internalType": "uint256",
          "name": "tokenId",
          "type": "uint256"
        },
        {
          "internalType": "address",
          "name": "owner",
          "type": "address"
        }
      ],
      "name": "ERC721IncorrectOwner",
      "type": "error"
    },
    {
      "inputs": [
        {
          "internalType": "address",
          "name": "operator",
          "type": "address"
        },
        {
          "internalType": "uint256",
          "name": "tokenId",
          "type": "uint256"
        }
      ],
      "name": "ERC721InsufficientApproval",
      "type": "error"
    },
    {
      "inputs": [
        {
          "internalType": "address",
          "name": "approver",
          "type": "address"
        }
      ],
      "name": "ERC721InvalidApprover",
      "type": "error"
    },
    {
      "inputs": [
        {
          "internalType": "address",
          "name": "operator",
          "type": "address"
        }
      ],
      "name": "ERC721InvalidOperator",
      "type": "error"
    },
    {
      "inputs": [
        {
          "internalType": "address",
          "name": "owner",
          "type": "address"
        }
      ],
      "name": "ERC721InvalidOwner",
      "type": "error"
    },
    {
      "inputs": [
        {
          "internalType": "address",
          "name": "receiver",
          "type": "address"
        }
      ],
      "name": "ERC721InvalidReceiver",
      "type": "error"
    },
    {
      "inputs": [
        {
          "internalType": "address",
          "name": "sender",
          "type": "address"
        }
      ],
      "name": "ERC721InvalidSender",
      "type": "error"
    },
    {
      "inputs": [
        {
          "internalType": "uint256",
          "name": "tokenId",
          "type": "uint256"
        }
      ],
      "name": "ERC721NonexistentToken",
      "type": "error"
    },
    {
      "inputs": [
        {
          "internalType": "address",
          "name": "owner",
          "type": "address"
        }
      ],
      "name": "OwnableInvalidOwner",
      "type": "error"
    },
    {
      "inputs": [
        {
          "internalType": "address",
          "name": "account",
          "type": "address"
        }
      ],
      "name": "OwnableUnauthorizedAccount",
      "type": "error"
    },
    {
      "anonymous": false,
      "inputs": [
        {
          "indexed": true,
          "internalType": "address",
          "name": "owner",
          "type": "address"
        },
        {
          "indexed": true,
          "internalType": "address",
          "name": "approved",
          "type": "address"
        },
        {
          "indexed": true,
          "internalType": "uint256",
          "name": "tokenId",
          "type": "uint256"
        }
      ],
      "name": "Approval",
      "type": "event"
    },
    {
      "anonymous": false,
      "inputs": [
        {
          "indexed": true,
          "internalType": "address",
          "name": "owner",
          "type": "address"
        },
        {
          "indexed": true,
          "internalType": "address",
          "name": "operator",
          "type": "address"
        },
        {
          "indexed": false,
          "internalType": "bool",
          "name": "approved",
          "type": "bool"
        }
      ],
      "name": "ApprovalForAll",
      "type": "event"
    },
    {
      "anonymous": false,
      "inputs": [
        {
          "indexed": false,
          "internalType": "uint256",
          "name": "tokenId",
          "type": "uint256"
        },
        {
          "indexed": false,
          "internalType": "uint256",
          "name": "price",
          "type": "uint256"
        },
        {
          "indexed": false,
          "internalType": "address",
          "name": "owner",
          "type": "address"
        }
      ],
      "name": "HouseListed",
      "type": "event"
    },
    {
      "anonymous": false,
      "inputs": [
        {
          "indexed": false,
          "internalType": "uint256",
          "name": "tokenId",
          "type": "uint256"
        },
        {
          "indexed": false,
          "internalType": "address",
          "name": "newOwner",
          "type": "address"
        },
        {
          "indexed": false,
          "internalType": "uint256",
          "name": "salePrice",
          "type": "uint256"
        }
      ],
      "name": "HouseSold",
      "type": "event"
    },
    {
      "anonymous": false,
      "inputs": [
        {
          "indexed": true,
          "internalType": "address",
          "name": "previousOwner",
          "type": "address"
        },
        {
          "indexed": true,
          "internalType": "address",
          "name": "newOwner",
          "type": "address"
        }
      ],
      "name": "OwnershipTransferred",
      "type": "event"
    },
    {
      "anonymous": false,
      "inputs": [
        {
          "indexed": true,
          "internalType": "address",
          "name": "from",
          "type": "address"
        },
        {
          "indexed": true,
          "internalType": "address",
          "name": "to",
          "type": "address"
        },
        {
          "indexed": true,
          "internalType": "uint256",
          "name": "tokenId",
          "type": "uint256"
        }
      ],
      "name": "Transfer",
      "type": "event"
    },
    {
      "inputs": [
        {
          "internalType": "address",
          "name": "to",
          "type": "address"
        },
        {
          "internalType": "uint256",
          "name": "tokenId",
          "type": "uint256"
        }
      ],
      "name": "approve",
      "outputs": [],
      "stateMutability": "nonpayable",
      "type": "function"
    },
    {
      "inputs": [
        {
          "internalType": "address",
          "name": "owner",
          "type": "address"
        }
      ],
      "name": "balanceOf",
      "outputs": [
        {
          "internalType": "uint256",
          "name": "",
          "type": "uint256"
        }
      ],
      "stateMutability": "view",
      "type": "function"
    },
    {
      "inputs": [
        {
          "internalType": "uint256",
          "name": "tokenId",
          "type": "uint256"
        }
      ],
      "name": "buyHouse",
      "outputs": [],
      "stateMutability": "payable",
      "type": "function"
    },
    {
      "inputs": [],
      "name": "feePercentage",
      "outputs": [
        {
          "internalType": "uint256",
          "name": "",
          "type": "uint256"
        }
      ],
      "stateMutability": "view",
      "type": "function"
    },
    {
      "inputs": [],
      "name": "getAllListedHouses",
      "outputs": [
        {
          "components": [
            {
              "internalType": "address",
              "name": "owner",
              "type": "address"
            },
            {
              "internalType": "uint256",
              "name": "price",
              "type": "uint256"
            },
            {
              "internalType": "uint256",
              "name": "listedTimestamp",
              "type": "uint256"
            },
            {
              "internalType": "bool",
              "name": "isListed",
              "type": "bool"
            }
          ],
          "internalType": "struct BuyMyRoom.House[]",
          "name": "",
          "type": "tuple[]"
        }
      ],
      "stateMutability": "view",
      "type": "function"
    },
    {
      "inputs": [
        {
          "internalType": "uint256",
          "name": "tokenId",
          "type": "uint256"
        }
      ],
      "name": "getApproved",
      "outputs": [
        {
          "internalType": "address",
          "name": "",
          "type": "address"
        }
      ],
      "stateMutability": "view",
      "type": "function"
    },
    {
      "inputs": [
        {
          "internalType": "uint256",
          "name": "tokenId",
          "type": "uint256"
        }
      ],
      "name": "getHouseInfo",
      "outputs": [
        {
          "components": [
            {
              "internalType": "address",
              "name": "owner",
              "type": "address"
            },
            {
              "internalType": "uint256",
              "name": "price",
              "type": "uint256"
            },
            {
              "internalType": "uint256",
              "name": "listedTimestamp",
              "type": "uint256"
            },
            {
              "internalType": "bool",
              "name": "isListed",
              "type": "bool"
            }
          ],
          "internalType": "struct BuyMyRoom.House",
          "name": "",
          "type": "tuple"
        }
      ],
      "stateMutability": "view",
      "type": "function"
    },
    {
      "inputs": [],
      "name": "getManager",
      "outputs": [
        {
          "internalType": "address",
          "name": "",
          "type": "address"
        }
      ],
      "stateMutability": "view",
      "type": "function"
    },
    {
      "inputs": [],
      "name": "getMyHouses",
      "outputs": [
        {
          "components": [
            {
              "internalType": "address",
              "name": "owner",
              "type": "address"
            },
            {
              "internalType": "uint256",
              "name": "price",
              "type": "uint256"
            },
            {
              "internalType": "uint256",
              "name": "listedTimestamp",
              "type": "uint256"
            },
            {
              "internalType": "bool",
              "name": "isListed",
              "type": "bool"
            }
          ],
          "internalType": "struct BuyMyRoom.House[]",
          "name": "",
          "type": "tuple[]"
        }
      ],
      "stateMutability": "view",
      "type": "function"
    },
    {
      "inputs": [
        {
          "internalType": "uint256",
          "name": "",
          "type": "uint256"
        }
      ],
      "name": "houses",
      "outputs": [
        {
          "internalType": "address",
          "name": "owner",
          "type": "address"
        },
        {
          "internalType": "uint256",
          "name": "price",
          "type": "uint256"
        },
        {
          "internalType": "uint256",
          "name": "listedTimestamp",
          "type": "uint256"
        },
        {
          "internalType": "bool",
          "name": "isListed",
          "type": "bool"
        }
      ],
      "stateMutability": "view",
      "type": "function"
    },
    {
      "inputs": [
        {
          "internalType": "address",
          "name": "owner",
          "type": "address"
        },
        {
          "internalType": "address",
          "name": "operator",
          "type": "address"
        }
      ],
      "name": "isApprovedForAll",
      "outputs": [
        {
          "internalType": "bool",
          "name": "",
          "type": "bool"
        }
      ],
      "stateMutability": "view",
      "type": "function"
    },
    {
      "inputs": [
        {
          "internalType": "uint256",
          "name": "tokenId",
          "type": "uint256"
        },
        {
          "internalType": "uint256",
          "name": "price",
          "type": "uint256"
        }
      ],
      "name": "listHouse",
      "outputs": [],
      "stateMutability": "nonpayable",
      "type": "function"
    },
    {
      "inputs": [],
      "name": "manager",
      "outputs": [
        {
          "internalType": "address",
          "name": "",
          "type": "address"
        }
      ],
      "stateMutability": "view",
      "type": "function"
    },
    {
      "inputs": [
        {
          "internalType": "address",
          "name": "to",
          "type": "address"
        }
      ],
      "name": "mintHouse",
      "outputs": [
        {
          "internalType": "uint256",
          "name": "",
          "type": "uint256"
        }
      ],
      "stateMutability": "nonpayable",
      "type": "function"
    },
    {
      "inputs": [],
      "name": "name",
      "outputs": [
        {
          "internalType": "string",
          "name": "",
          "type": "string"
        }
      ],
      "stateMutability": "view",
      "type": "function"
    },
    {
      "inputs": [],
      "name": "nextHouseId",
      "outputs": [
        {
          "internalType": "uint256",
          "name": "",
          "type": "uint256"
        }
      ],
      "stateMutability": "view",
      "type": "function"
    },
    {
      "inputs": [],
      "name": "owner",
      "outputs": [
        {
          "internalType": "address",
          "name": "",
          "type": "address"
        }
      ],
      "stateMutability": "view",
      "type": "function"
    },
    {
      "inputs": [
        {
          "internalType": "uint256",
          "name": "tokenId",
          "type": "uint256"
        }
      ],
      "name": "ownerOf",
      "outputs": [
        {
          "internalType": "address",
          "name": "",
          "type": "address"
        }
      ],
      "stateMutability": "view",
      "type": "function"
    },
    {
      "inputs": [],
      "name": "renounceOwnership",
      "outputs": [],
      "stateMutability": "nonpayable",
      "type": "function"
    },
    {
      "inputs": [
        {
          "internalType": "address",
          "name": "from",
          "type": "address"
        },
        {
          "internalType": "address",
          "name": "to",
          "type": "address"
        },
        {
          "internalType": "uint256",
          "name": "tokenId",
          "type": "uint256"
        }
      ],
      "name": "safeTransferFrom",
      "outputs": [],
      "stateMutability": "nonpayable",
      "type": "function"
    },
    {
      "inputs": [
        {
          "internalType": "address",
          "name": "from",
          "type": "address"
        },
        {
          "internalType": "address",
          "name": "to",
          "type": "address"
        },
        {
          "internalType": "uint256",
          "name": "tokenId",
          "type": "uint256"
        },
        {
          "internalType": "bytes",
          "name": "data",
          "type": "bytes"
        }
      ],
      "name": "safeTransferFrom",
      "outputs": [],
      "stateMutability": "nonpayable",
      "type": "function"
    },
    {
      "inputs": [
        {
          "internalType": "address",
          "name": "operator",
          "type": "address"
        },
        {
          "internalType": "bool",
          "name": "approved",
          "type": "bool"
        }
      ],
      "name": "setApprovalForAll",
      "outputs": [],
      "stateMutability": "nonpayable",
      "type": "function"
    },
    {
      "inputs": [
        {
          "internalType": "bytes4",
          "name": "interfaceId",
          "type": "bytes4"
        }
      ],
      "name": "supportsInterface",
      "outputs": [
        {
          "internalType": "bool",
          "name": "",
          "type": "bool"
        }
      ],
      "stateMutability": "view",
      "type": "function"
    },
    {
      "inputs": [],
      "name": "symbol",
      "outputs": [
        {
          "internalType": "string",
          "name": "",
          "type": "string"
        }
      ],
      "stateMutability": "view",
      "type": "function"
    },
    {
      "inputs": [
        {
          "internalType": "uint256",
          "name": "tokenId",
          "type": "uint256"
        }
      ],
      "name": "tokenURI",
      "outputs": [
        {
          "internalType": "string",
          "name": "",
          "type": "string"
        }
      ],
      "stateMutability": "view",
      "type": "function"
    },
    {
      "inputs": [
        {
          "internalType": "address",
          "name": "from",
          "type": "address"
        },
        {
          "internalType": "address",
          "name": "to",
          "type": "address"
        },
        {
          "internalType": "uint256",
          "name": "tokenId",
          "type": "uint256"
        }
      ],
      "name": "transferFrom",
      "outputs": [],
      "stateMutability": "nonpayable",
      "type": "function"
    },
    {
      "inputs": [
        {
          "internalType": "address",
          "name": "newOwner",
          "type": "address"
        }
      ],
      "name": "transferOwnership",
      "outputs": [],
      "stateMutability": "nonpayable",
      "type": "function"
    }
  ],
  "bytecode": "0x6080604052600060085560056009553480156200001b57600080fd5b50336040518060400160405280600981526020017f4275794d79526f6f6d00000000000000000000000000000000000000000000008152506040518060400160405280600381526020017f424d52000000000000000000000000000000000000000000000000000000000081525081600090816200009a919062000614565b508060019081620000ac919062000614565b505050600073ffffffffffffffffffffffffffffffffffffffff168173ffffffffffffffffffffffffffffffffffffffff1603620001245760006040517f1e4fbdf70000000000000000000000000000000000000000000000000000000081526004016200011b919062000740565b60405180910390fd5b6200013581620001c460201b60201c565b5033600a60006101000a81548173ffffffffffffffffffffffffffffffffffffffff021916908373ffffffffffffffffffffffffffffffffffffffff160217905550620001be6040518060400160405280601881526020017f436f6e7472616374206465706c6f7965642062793a2025730000000000000000815250336200028a60201b60201c565b6200084f565b6000600660009054906101000a900473ffffffffffffffffffffffffffffffffffffffff16905081600660006101000a81548173ffffffffffffffffffffffffffffffffffffffff021916908373ffffffffffffffffffffffffffffffffffffffff1602179055508173ffffffffffffffffffffffffffffffffffffffff168173ffffffffffffffffffffffffffffffffffffffff167f8be0079c531659141344cd1fd0a4f28419497f9722a3daafe3b4186f6b6457e060405160405180910390a35050565b6200032c8282604051602401620002a3929190620007ec565b6040516020818303038152906040527f319af333000000000000000000000000000000000000000000000000000000007bffffffffffffffffffffffffffffffffffffffffffffffffffffffff19166020820180517bffffffffffffffffffffffffffffffffffffffffffffffffffffffff83818316178352505050506200033060201b60201c565b5050565b6200035681620003516200035960201b620019fb176200037a60201b60201c565b60201c565b50565b60006a636f6e736f6c652e6c6f679050600080835160208501845afa505050565b6200038e60201b62002bea17819050919050565b6200039862000820565b565b600081519050919050565b7f4e487b7100000000000000000000000000000000000000000000000000000000600052604160045260246000fd5b7f4e487b7100000000000000000000000000000000000000000000000000000000600052602260045260246000fd5b600060028204905060018216806200041c57607f821691505b602082108103620004325762000431620003d4565b5b50919050565b60008190508160005260206000209050919050565b60006020601f8301049050919050565b600082821b905092915050565b6000600883026200049c7fffffffffffffffffffffffffffffffffffffffffffffffffffffffffffffffff826200045d565b620004a886836200045d565b95508019841693508086168417925050509392505050565b6000819050919050565b6000819050919050565b6000620004f5620004ef620004e984620004c0565b620004ca565b620004c0565b9050919050565b6000819050919050565b6200051183620004d4565b620005296200052082620004fc565b8484546200046a565b825550505050565b600090565b6200054062000531565b6200054d81848462000506565b505050565b5b8181101562000575576200056960008262000536565b60018101905062000553565b5050565b601f821115620005c4576200058e8162000438565b62000599846200044d565b81016020851015620005a9578190505b620005c1620005b8856200044d565b83018262000552565b50505b505050565b600082821c905092915050565b6000620005e960001984600802620005c9565b1980831691505092915050565b6000620006048383620005d6565b9150826002028217905092915050565b6200061f826200039a565b67ffffffffffffffff8111156200063b576200063a620003a5565b5b62000647825462000403565b6200065482828562000579565b600060209050601f8311600181146200068c576000841562000677578287015190505b620006838582620005f6565b865550620006f3565b601f1984166200069c8662000438565b60005b82811015620006c6578489015182556001820191506020850194506020810190506200069f565b86831015620006e65784890151620006e2601f891682620005d6565b8355505b6001600288020188555050505b505050505050565b600073ffffffffffffffffffffffffffffffffffffffff82169050919050565b60006200072882620006fb565b9050919050565b6200073a816200071b565b82525050565b60006020820190506200075760008301846200072f565b92915050565b600082825260208201905092915050565b60005b838110156200078e57808201518184015260208101905062000771565b60008484015250505050565b6000601f19601f8301169050919050565b6000620007b8826200039a565b620007c481856200075d565b9350620007d68185602086016200076e565b620007e1816200079a565b840191505092915050565b60006040820190508181036000830152620008088185620007ab565b90506200081960208301846200072f565b9392505050565b7f4e487b7100000000000000000000000000000000000000000000000000000000600052605160045260246000fd5b613bb2806200085f6000396000f3fe60806040526004361061019c5760003560e01c80639946f084116100ec578063b54230c91161008a578063d500958411610064578063d5009584146105f1578063e985e9c51461061c578063eddc426914610659578063f2fde38b146106755761019c565b8063b54230c914610560578063b88d4fde1461058b578063c87b56dd146105b45761019c565b8063a22cb465116100c6578063a22cb4651461048f578063ad50f56d146104b8578063aeda852f146104f5578063b14f1afd146105355761019c565b80639946f084146103fe57806399b231781461043b578063a001ecdd146104645761019c565b8063481c6a7511610159578063715018a611610133578063715018a614610366578063819782b31461037d5780638da5cb5b146103a857806395d89b41146103d35761019c565b8063481c6a75146102c15780636352211e146102ec57806370a08231146103295761019c565b806301ffc9a7146101a157806306fdde03146101de578063081812fc14610209578063095ea7b31461024657806323b872dd1461026f57806342842e0e14610298575b600080fd5b3480156101ad57600080fd5b506101c860048036038101906101c39190612ca0565b61069e565b6040516101d59190612ce8565b60405180910390f35b3480156101ea57600080fd5b506101f3610780565b6040516102009190612d93565b60405180910390f35b34801561021557600080fd5b50610230600480360381019061022b9190612deb565b610812565b60405161023d9190612e59565b60405180910390f35b34801561025257600080fd5b5061026d60048036038101906102689190612ea0565b61082e565b005b34801561027b57600080fd5b5061029660048036038101906102919190612ee0565b610844565b005b3480156102a457600080fd5b506102bf60048036038101906102ba9190612ee0565b610946565b005b3480156102cd57600080fd5b506102d6610966565b6040516102e39190612e59565b60405180910390f35b3480156102f857600080fd5b50610313600480360381019061030e9190612deb565b61098c565b6040516103209190612e59565b60405180910390f35b34801561033557600080fd5b50610350600480360381019061034b9190612f33565b61099e565b60405161035d9190612f6f565b60405180910390f35b34801561037257600080fd5b5061037b610a58565b005b34801561038957600080fd5b50610392610a6c565b60405161039f91906130bb565b60405180910390f35b3480156103b457600080fd5b506103bd610cc1565b6040516103ca9190612e59565b60405180910390f35b3480156103df57600080fd5b506103e8610ceb565b6040516103f59190612d93565b60405180910390f35b34801561040a57600080fd5b5061042560048036038101906104209190612f33565b610d7d565b6040516104329190612f6f565b60405180910390f35b34801561044757600080fd5b50610462600480360381019061045d91906130dd565b610f49565b005b34801561047057600080fd5b50610479611087565b6040516104869190612f6f565b60405180910390f35b34801561049b57600080fd5b506104b660048036038101906104b19190613149565b61108d565b005b3480156104c457600080fd5b506104df60048036038101906104da9190612deb565b6110a3565b6040516104ec91906131de565b60405180910390f35b34801561050157600080fd5b5061051c60048036038101906105179190612deb565b611194565b60405161052c94939291906131f9565b60405180910390f35b34801561054157600080fd5b5061054a6111f1565b60405161055791906130bb565b60405180910390f35b34801561056c57600080fd5b506105756114c6565b6040516105829190612f6f565b60405180910390f35b34801561059757600080fd5b506105b260048036038101906105ad9190613373565b6114cc565b005b3480156105c057600080fd5b506105db60048036038101906105d69190612deb565b6114e9565b6040516105e89190612d93565b60405180910390f35b3480156105fd57600080fd5b50610606611552565b6040516106139190612e59565b60405180910390f35b34801561062857600080fd5b50610643600480360381019061063e91906133f6565b61157c565b6040516106509190612ce8565b60405180910390f35b610673600480360381019061066e9190612deb565b611610565b005b34801561068157600080fd5b5061069c60048036038101906106979190612f33565b611975565b005b60007f80ac58cd000000000000000000000000000000000000000000000000000000007bffffffffffffffffffffffffffffffffffffffffffffffffffffffff1916827bffffffffffffffffffffffffffffffffffffffffffffffffffffffff1916148061076957507f5b5e139f000000000000000000000000000000000000000000000000000000007bffffffffffffffffffffffffffffffffffffffffffffffffffffffff1916827bffffffffffffffffffffffffffffffffffffffffffffffffffffffff1916145b80610779575061077882611a1c565b5b9050919050565b60606000805461078f90613465565b80601f01602080910402602001604051908101604052809291908181526020018280546107bb90613465565b80156108085780601f106107dd57610100808354040283529160200191610808565b820191906000526020600020905b8154815290600101906020018083116107eb57829003601f168201915b5050505050905090565b600061081d82611a86565b5061082782611b0e565b9050919050565b610840828261083b611b4b565b611b53565b5050565b600073ffffffffffffffffffffffffffffffffffffffff168273ffffffffffffffffffffffffffffffffffffffff16036108b65760006040517f64a0ae920000000000000000000000000000000000000000000000000000000081526004016108ad9190612e59565b60405180910390fd5b60006108ca83836108c5611b4b565b611b65565b90508373ffffffffffffffffffffffffffffffffffffffff168173ffffffffffffffffffffffffffffffffffffffff1614610940578382826040517f64283d7b00000000000000000000000000000000000000000000000000000000815260040161093793929190613496565b60405180910390fd5b50505050565b610961838383604051806020016040528060008152506114cc565b505050565b600a60009054906101000a900473ffffffffffffffffffffffffffffffffffffffff1681565b600061099782611a86565b9050919050565b60008073ffffffffffffffffffffffffffffffffffffffff168273ffffffffffffffffffffffffffffffffffffffff1603610a115760006040517f89c62b64000000000000000000000000000000000000000000000000000000008152600401610a089190612e59565b60405180910390fd5b600360008373ffffffffffffffffffffffffffffffffffffffff1673ffffffffffffffffffffffffffffffffffffffff168152602001908152602001600020549050919050565b610a60611d7f565b610a6a6000611e06565b565b60606000805b600854811015610ac7576007600082815260200190815260200160002060030160009054906101000a900460ff1615610ab4578180610ab0906134fc565b9250505b8080610abf906134fc565b915050610a72565b5060008167ffffffffffffffff811115610ae457610ae3613248565b5b604051908082528060200260200182016040528015610b1d57816020015b610b0a612bf4565b815260200190600190039081610b025790505b5090506000610b616040518060400160405280600881526020017f557365723a20257300000000000000000000000000000000000000000000000081525033611ecc565b60005b600854811015610cb7576007600082815260200190815260200160002060030160009054906101000a900460ff1615610ca457600760008281526020019081526020016000206040518060800160405290816000820160009054906101000a900473ffffffffffffffffffffffffffffffffffffffff1673ffffffffffffffffffffffffffffffffffffffff1673ffffffffffffffffffffffffffffffffffffffff16815260200160018201548152602001600282015481526020016003820160009054906101000a900460ff161515151581525050838380610c46906134fc565b945081518110610c5957610c58613544565b5b6020026020010181905250610ca36040518060400160405280601581526020017f466f756e64206c697374656420686f757365202573000000000000000000000081525082611f68565b5b8080610caf906134fc565b915050610b64565b5081935050505090565b6000600660009054906101000a900473ffffffffffffffffffffffffffffffffffffffff16905090565b606060018054610cfa90613465565b80601f0160208091040260200160405190810160405280929190818152602001828054610d2690613465565b8015610d735780601f10610d4857610100808354040283529160200191610d73565b820191906000526020600020905b815481529060010190602001808311610d5657829003601f168201915b5050505050905090565b6000600a60009054906101000a900473ffffffffffffffffffffffffffffffffffffffff1673ffffffffffffffffffffffffffffffffffffffff163373ffffffffffffffffffffffffffffffffffffffff1614610e0f576040517f08c379a0000000000000000000000000000000000000000000000000000000008152600401610e06906135bf565b60405180910390fd5b600060086000815480929190610e24906134fc565b919050559050610e348382612004565b60405180608001604052808473ffffffffffffffffffffffffffffffffffffffff16815260200160008152602001428152602001600015158152506007600083815260200190815260200160002060008201518160000160006101000a81548173ffffffffffffffffffffffffffffffffffffffff021916908373ffffffffffffffffffffffffffffffffffffffff160217905550602082015181600101556040820151816002015560608201518160030160006101000a81548160ff021916908315150217905550905050610f406040518060400160405280601581526020017f486f757365206d696e74656420257320746f202573000000000000000000000081525082856120fd565b80915050919050565b3373ffffffffffffffffffffffffffffffffffffffff16610f698361098c565b73ffffffffffffffffffffffffffffffffffffffff1614610fbf576040517f08c379a0000000000000000000000000000000000000000000000000000000008152600401610fb69061362b565b60405180910390fd5b80600760008481526020019081526020016000206001018190555042600760008481526020019081526020016000206002018190555060016007600084815260200190815260200160002060030160006101000a81548160ff0219169083151502179055507f60b3e540896cf4a419e7b7274a1f1282223f5d92ca6f0152cf820fe457fb48438282336040516110579392919061364b565b60405180910390a1611083604051806060016040528060228152602001613b396022913983833361219c565b5050565b60095481565b61109f611098611b4b565b838361223e565b5050565b6110ab612bf4565b6110ea6040518060400160405280601a81526020017f4665746368696e6720696e666f20666f7220686f75736520257300000000000081525083611f68565b600760008381526020019081526020016000206040518060800160405290816000820160009054906101000a900473ffffffffffffffffffffffffffffffffffffffff1673ffffffffffffffffffffffffffffffffffffffff1673ffffffffffffffffffffffffffffffffffffffff16815260200160018201548152602001600282015481526020016003820160009054906101000a900460ff1615151515815250509050919050565b60076020528060005260406000206000915090508060000160009054906101000a900473ffffffffffffffffffffffffffffffffffffffff16908060010154908060020154908060030160009054906101000a900460ff16905084565b60606000805b60085481101561128c573373ffffffffffffffffffffffffffffffffffffffff166007600083815260200190815260200160002060000160009054906101000a900473ffffffffffffffffffffffffffffffffffffffff1673ffffffffffffffffffffffffffffffffffffffff1603611279578180611275906134fc565b9250505b8080611284906134fc565b9150506111f7565b5060008167ffffffffffffffff8111156112a9576112a8613248565b5b6040519080825280602002602001820160405280156112e257816020015b6112cf612bf4565b8152602001906001900390816112c75790505b50905060006113266040518060400160405280600881526020017f557365723a20257300000000000000000000000000000000000000000000000081525033611ecc565b60005b6008548110156114bc573373ffffffffffffffffffffffffffffffffffffffff166007600083815260200190815260200160002060000160009054906101000a900473ffffffffffffffffffffffffffffffffffffffff1673ffffffffffffffffffffffffffffffffffffffff16036114a957600760008281526020019081526020016000206040518060800160405290816000820160009054906101000a900473ffffffffffffffffffffffffffffffffffffffff1673ffffffffffffffffffffffffffffffffffffffff1673ffffffffffffffffffffffffffffffffffffffff16815260200160018201548152602001600282015481526020016003820160009054906101000a900460ff16151515158152505083838061144b906134fc565b94508151811061145e5761145d613544565b5b60200260200101819052506114a86040518060400160405280601781526020017f466f756e6420686f75736520666f72207573657220257300000000000000000081525082611f68565b5b80806114b4906134fc565b915050611329565b5081935050505090565b60085481565b6114d7848484610844565b6114e3848484846123ad565b50505050565b60606114f482611a86565b5060006114ff612564565b9050600081511161151f576040518060200160405280600081525061154a565b806115298461257b565b60405160200161153a9291906136be565b6040516020818303038152906040525b915050919050565b6000600a60009054906101000a900473ffffffffffffffffffffffffffffffffffffffff16905090565b6000600560008473ffffffffffffffffffffffffffffffffffffffff1673ffffffffffffffffffffffffffffffffffffffff16815260200190815260200160002060008373ffffffffffffffffffffffffffffffffffffffff1673ffffffffffffffffffffffffffffffffffffffff16815260200190815260200160002060009054906101000a900460ff16905092915050565b6000600760008381526020019081526020016000206040518060800160405290816000820160009054906101000a900473ffffffffffffffffffffffffffffffffffffffff1673ffffffffffffffffffffffffffffffffffffffff1673ffffffffffffffffffffffffffffffffffffffff16815260200160018201548152602001600282015481526020016003820160009054906101000a900460ff161515151581525050905080606001516116fb576040517f08c379a00000000000000000000000000000000000000000000000000000000081526004016116f29061372e565b60405180910390fd5b8060200151341015611742576040517f08c379a00000000000000000000000000000000000000000000000000000000081526004016117399061379a565b60405180910390fd5b611766604051806060016040528060228152602001613b5b60229139833334612649565b600081604001514261177891906137ba565b905060006103e883602001516009548461179291906137ee565b61179c91906137ee565b6117a6919061385f565b9050600a60009054906101000a900473ffffffffffffffffffffffffffffffffffffffff1673ffffffffffffffffffffffffffffffffffffffff166108fc829081150290604051600060405180830381858888f19350505050158015611810573d6000803e3d6000fd5b50826000015173ffffffffffffffffffffffffffffffffffffffff166108fc82856020015161183f91906137ba565b9081150290604051600060405180830381858888f1935050505015801561186a573d6000803e3d6000fd5b50336007600086815260200190815260200160002060000160006101000a81548173ffffffffffffffffffffffffffffffffffffffff021916908373ffffffffffffffffffffffffffffffffffffffff16021790555060006007600086815260200190815260200160002060030160006101000a81548160ff0219169083151502179055507f7d8ae52f455fef56a09ce9edb1dc811247eeee52705033ef77eb1dbf84fb9cbd8433856020015160405161192693929190613890565b60405180910390a161196f6040518060400160405280601f81526020017f486f75736520736f6c6420257320746f20257320776974682066656520257300815250853384612649565b50505050565b61197d611d7f565b600073ffffffffffffffffffffffffffffffffffffffff168173ffffffffffffffffffffffffffffffffffffffff16036119ef5760006040517f1e4fbdf70000000000000000000000000000000000000000000000000000000081526004016119e69190612e59565b60405180910390fd5b6119f881611e06565b50565b60006a636f6e736f6c652e6c6f679050600080835160208501845afa505050565b60007f01ffc9a7000000000000000000000000000000000000000000000000000000007bffffffffffffffffffffffffffffffffffffffffffffffffffffffff1916827bffffffffffffffffffffffffffffffffffffffffffffffffffffffff1916149050919050565b600080611a92836126eb565b9050600073ffffffffffffffffffffffffffffffffffffffff168173ffffffffffffffffffffffffffffffffffffffff1603611b0557826040517f7e273289000000000000000000000000000000000000000000000000000000008152600401611afc9190612f6f565b60405180910390fd5b80915050919050565b60006004600083815260200190815260200160002060009054906101000a900473ffffffffffffffffffffffffffffffffffffffff169050919050565b600033905090565b611b608383836001612728565b505050565b600080611b71846126eb565b9050600073ffffffffffffffffffffffffffffffffffffffff168373ffffffffffffffffffffffffffffffffffffffff1614611bb357611bb28184866128ed565b5b600073ffffffffffffffffffffffffffffffffffffffff168173ffffffffffffffffffffffffffffffffffffffff1614611c4457611bf5600085600080612728565b6001600360008373ffffffffffffffffffffffffffffffffffffffff1673ffffffffffffffffffffffffffffffffffffffff168152602001908152602001600020600082825403925050819055505b600073ffffffffffffffffffffffffffffffffffffffff168573ffffffffffffffffffffffffffffffffffffffff1614611cc7576001600360008773ffffffffffffffffffffffffffffffffffffffff1673ffffffffffffffffffffffffffffffffffffffff168152602001908152602001600020600082825401925050819055505b846002600086815260200190815260200160002060006101000a81548173ffffffffffffffffffffffffffffffffffffffff021916908373ffffffffffffffffffffffffffffffffffffffff160217905550838573ffffffffffffffffffffffffffffffffffffffff168273ffffffffffffffffffffffffffffffffffffffff167fddf252ad1be2c89b69c2b068fc378daa952ba7f163c4a11628f55a4df523b3ef60405160405180910390a4809150509392505050565b611d87611b4b565b73ffffffffffffffffffffffffffffffffffffffff16611da5610cc1565b73ffffffffffffffffffffffffffffffffffffffff1614611e0457611dc8611b4b565b6040517f118cdaa7000000000000000000000000000000000000000000000000000000008152600401611dfb9190612e59565b60405180910390fd5b565b6000600660009054906101000a900473ffffffffffffffffffffffffffffffffffffffff16905081600660006101000a81548173ffffffffffffffffffffffffffffffffffffffff021916908373ffffffffffffffffffffffffffffffffffffffff1602179055508173ffffffffffffffffffffffffffffffffffffffff168173ffffffffffffffffffffffffffffffffffffffff167f8be0079c531659141344cd1fd0a4f28419497f9722a3daafe3b4186f6b6457e060405160405180910390a35050565b611f648282604051602401611ee29291906138c7565b6040516020818303038152906040527f319af333000000000000000000000000000000000000000000000000000000007bffffffffffffffffffffffffffffffffffffffffffffffffffffffff19166020820180517bffffffffffffffffffffffffffffffffffffffffffffffffffffffff83818316178352505050506129b1565b5050565b6120008282604051602401611f7e9291906138f7565b6040516020818303038152906040527fb60e72cc000000000000000000000000000000000000000000000000000000007bffffffffffffffffffffffffffffffffffffffffffffffffffffffff19166020820180517bffffffffffffffffffffffffffffffffffffffffffffffffffffffff83818316178352505050506129b1565b5050565b600073ffffffffffffffffffffffffffffffffffffffff168273ffffffffffffffffffffffffffffffffffffffff16036120765760006040517f64a0ae9200000000000000000000000000000000000000000000000000000000815260040161206d9190612e59565b60405180910390fd5b600061208483836000611b65565b9050600073ffffffffffffffffffffffffffffffffffffffff168173ffffffffffffffffffffffffffffffffffffffff16146120f85760006040517f73c6ac6e0000000000000000000000000000000000000000000000000000000081526004016120ef9190612e59565b60405180910390fd5b505050565b61219783838360405160240161211593929190613927565b6040516020818303038152906040527f1c7ec448000000000000000000000000000000000000000000000000000000007bffffffffffffffffffffffffffffffffffffffffffffffffffffffff19166020820180517bffffffffffffffffffffffffffffffffffffffffffffffffffffffff83818316178352505050506129b1565b505050565b612238848484846040516024016121b69493929190613965565b6040516020818303038152906040527fe21de278000000000000000000000000000000000000000000000000000000007bffffffffffffffffffffffffffffffffffffffffffffffffffffffff19166020820180517bffffffffffffffffffffffffffffffffffffffffffffffffffffffff83818316178352505050506129b1565b50505050565b600073ffffffffffffffffffffffffffffffffffffffff168273ffffffffffffffffffffffffffffffffffffffff16036122af57816040517f5b08ba180000000000000000000000000000000000000000000000000000000081526004016122a69190612e59565b60405180910390fd5b80600560008573ffffffffffffffffffffffffffffffffffffffff1673ffffffffffffffffffffffffffffffffffffffff16815260200190815260200160002060008473ffffffffffffffffffffffffffffffffffffffff1673ffffffffffffffffffffffffffffffffffffffff16815260200190815260200160002060006101000a81548160ff0219169083151502179055508173ffffffffffffffffffffffffffffffffffffffff168373ffffffffffffffffffffffffffffffffffffffff167f17307eab39ab6107e8899845ad3d59bd9653f200f220920489ca2b5937696c31836040516123a09190612ce8565b60405180910390a3505050565b60008373ffffffffffffffffffffffffffffffffffffffff163b111561255e578273ffffffffffffffffffffffffffffffffffffffff1663150b7a026123f1611b4b565b8685856040518563ffffffff1660e01b81526004016124139493929190613a06565b6020604051808303816000875af192505050801561244f57506040513d601f19601f8201168201806040525081019061244c9190613a67565b60015b6124d3573d806000811461247f576040519150601f19603f3d011682016040523d82523d6000602084013e612484565b606091505b5060008151036124cb57836040517f64a0ae920000000000000000000000000000000000000000000000000000000081526004016124c29190612e59565b60405180910390fd5b805181602001fd5b63150b7a0260e01b7bffffffffffffffffffffffffffffffffffffffffffffffffffffffff1916817bffffffffffffffffffffffffffffffffffffffffffffffffffffffff19161461255c57836040517f64a0ae920000000000000000000000000000000000000000000000000000000081526004016125539190612e59565b60405180910390fd5b505b50505050565b606060405180602001604052806000815250905090565b60606000600161258a846129cb565b01905060008167ffffffffffffffff8111156125a9576125a8613248565b5b6040519080825280601f01601f1916602001820160405280156125db5781602001600182028036833780820191505090505b509050600082602001820190505b60011561263e578080600190039150507f3031323334353637383961626364656600000000000000000000000000000000600a86061a8153600a858161263257612631613830565b5b049450600085036125e9575b819350505050919050565b6126e5848484846040516024016126639493929190613a94565b6040516020818303038152906040527f4f04fdc6000000000000000000000000000000000000000000000000000000007bffffffffffffffffffffffffffffffffffffffffffffffffffffffff19166020820180517bffffffffffffffffffffffffffffffffffffffffffffffffffffffff83818316178352505050506129b1565b50505050565b60006002600083815260200190815260200160002060009054906101000a900473ffffffffffffffffffffffffffffffffffffffff169050919050565b80806127615750600073ffffffffffffffffffffffffffffffffffffffff168273ffffffffffffffffffffffffffffffffffffffff1614155b1561289557600061277184611a86565b9050600073ffffffffffffffffffffffffffffffffffffffff168373ffffffffffffffffffffffffffffffffffffffff16141580156127dc57508273ffffffffffffffffffffffffffffffffffffffff168173ffffffffffffffffffffffffffffffffffffffff1614155b80156127ef57506127ed818461157c565b155b1561283157826040517fa9fbf51f0000000000000000000000000000000000000000000000000000000081526004016128289190612e59565b60405180910390fd5b811561289357838573ffffffffffffffffffffffffffffffffffffffff168273ffffffffffffffffffffffffffffffffffffffff167f8c5be1e5ebec7d5bd14f71427d1e84f3dd0314c0f7b2291e5b200ac8c7c3b92560405160405180910390a45b505b836004600085815260200190815260200160002060006101000a81548173ffffffffffffffffffffffffffffffffffffffff021916908373ffffffffffffffffffffffffffffffffffffffff16021790555050505050565b6128f8838383612b1e565b6129ac57600073ffffffffffffffffffffffffffffffffffffffff168373ffffffffffffffffffffffffffffffffffffffff160361296d57806040517f7e2732890000000000000000000000000000000000000000000000000000000081526004016129649190612f6f565b60405180910390fd5b81816040517f177e802f0000000000000000000000000000000000000000000000000000000081526004016129a3929190613ae0565b60405180910390fd5b505050565b6129c8816129c06119fb612bdf565b63ffffffff16565b50565b600080600090507a184f03e93ff9f4daa797ed6e38ed64bf6a1f0100000000000000008310612a29577a184f03e93ff9f4daa797ed6e38ed64bf6a1f0100000000000000008381612a1f57612a1e613830565b5b0492506040810190505b6d04ee2d6d415b85acef81000000008310612a66576d04ee2d6d415b85acef81000000008381612a5c57612a5b613830565b5b0492506020810190505b662386f26fc100008310612a9557662386f26fc100008381612a8b57612a8a613830565b5b0492506010810190505b6305f5e1008310612abe576305f5e1008381612ab457612ab3613830565b5b0492506008810190505b6127108310612ae3576127108381612ad957612ad8613830565b5b0492506004810190505b60648310612b065760648381612afc57612afb613830565b5b0492506002810190505b600a8310612b15576001810190505b80915050919050565b60008073ffffffffffffffffffffffffffffffffffffffff168373ffffffffffffffffffffffffffffffffffffffff1614158015612bd657508273ffffffffffffffffffffffffffffffffffffffff168473ffffffffffffffffffffffffffffffffffffffff161480612b975750612b96848461157c565b5b80612bd557508273ffffffffffffffffffffffffffffffffffffffff16612bbd83611b0e565b73ffffffffffffffffffffffffffffffffffffffff16145b5b90509392505050565b612bea819050919050565b612bf2613b09565b565b6040518060800160405280600073ffffffffffffffffffffffffffffffffffffffff16815260200160008152602001600081526020016000151581525090565b6000604051905090565b600080fd5b600080fd5b60007fffffffff0000000000000000000000000000000000000000000000000000000082169050919050565b612c7d81612c48565b8114612c8857600080fd5b50565b600081359050612c9a81612c74565b92915050565b600060208284031215612cb657612cb5612c3e565b5b6000612cc484828501612c8b565b91505092915050565b60008115159050919050565b612ce281612ccd565b82525050565b6000602082019050612cfd6000830184612cd9565b92915050565b600081519050919050565b600082825260208201905092915050565b60005b83811015612d3d578082015181840152602081019050612d22565b60008484015250505050565b6000601f19601f8301169050919050565b6000612d6582612d03565b612d6f8185612d0e565b9350612d7f818560208601612d1f565b612d8881612d49565b840191505092915050565b60006020820190508181036000830152612dad8184612d5a565b905092915050565b6000819050919050565b612dc881612db5565b8114612dd357600080fd5b50565b600081359050612de581612dbf565b92915050565b600060208284031215612e0157612e00612c3e565b5b6000612e0f84828501612dd6565b91505092915050565b600073ffffffffffffffffffffffffffffffffffffffff82169050919050565b6000612e4382612e18565b9050919050565b612e5381612e38565b82525050565b6000602082019050612e6e6000830184612e4a565b92915050565b612e7d81612e38565b8114612e8857600080fd5b50565b600081359050612e9a81612e74565b92915050565b60008060408385031215612eb757612eb6612c3e565b5b6000612ec585828601612e8b565b9250506020612ed685828601612dd6565b9150509250929050565b600080600060608486031215612ef957612ef8612c3e565b5b6000612f0786828701612e8b565b9350506020612f1886828701612e8b565b9250506040612f2986828701612dd6565b9150509250925092565b600060208284031215612f4957612f48612c3e565b5b6000612f5784828501612e8b565b91505092915050565b612f6981612db5565b82525050565b6000602082019050612f846000830184612f60565b92915050565b600081519050919050565b600082825260208201905092915050565b6000819050602082019050919050565b612fbf81612e38565b82525050565b612fce81612db5565b82525050565b612fdd81612ccd565b82525050565b608082016000820151612ff96000850182612fb6565b50602082015161300c6020850182612fc5565b50604082015161301f6040850182612fc5565b5060608201516130326060850182612fd4565b50505050565b60006130448383612fe3565b60808301905092915050565b6000602082019050919050565b600061306882612f8a565b6130728185612f95565b935061307d83612fa6565b8060005b838110156130ae5781516130958882613038565b97506130a083613050565b925050600181019050613081565b5085935050505092915050565b600060208201905081810360008301526130d5818461305d565b905092915050565b600080604083850312156130f4576130f3612c3e565b5b600061310285828601612dd6565b925050602061311385828601612dd6565b9150509250929050565b61312681612ccd565b811461313157600080fd5b50565b6000813590506131438161311d565b92915050565b600080604083850312156131605761315f612c3e565b5b600061316e85828601612e8b565b925050602061317f85828601613134565b9150509250929050565b60808201600082015161319f6000850182612fb6565b5060208201516131b26020850182612fc5565b5060408201516131c56040850182612fc5565b5060608201516131d86060850182612fd4565b50505050565b60006080820190506131f36000830184613189565b92915050565b600060808201905061320e6000830187612e4a565b61321b6020830186612f60565b6132286040830185612f60565b6132356060830184612cd9565b95945050505050565b600080fd5b600080fd5b7f4e487b7100000000000000000000000000000000000000000000000000000000600052604160045260246000fd5b61328082612d49565b810181811067ffffffffffffffff8211171561329f5761329e613248565b5b80604052505050565b60006132b2612c34565b90506132be8282613277565b919050565b600067ffffffffffffffff8211156132de576132dd613248565b5b6132e782612d49565b9050602081019050919050565b82818337600083830152505050565b6000613316613311846132c3565b6132a8565b90508281526020810184848401111561333257613331613243565b5b61333d8482856132f4565b509392505050565b600082601f83011261335a5761335961323e565b5b813561336a848260208601613303565b91505092915050565b6000806000806080858703121561338d5761338c612c3e565b5b600061339b87828801612e8b565b94505060206133ac87828801612e8b565b93505060406133bd87828801612dd6565b925050606085013567ffffffffffffffff8111156133de576133dd612c43565b5b6133ea87828801613345565b91505092959194509250565b6000806040838503121561340d5761340c612c3e565b5b600061341b85828601612e8b565b925050602061342c85828601612e8b565b9150509250929050565b7f4e487b7100000000000000000000000000000000000000000000000000000000600052602260045260246000fd5b6000600282049050600182168061347d57607f821691505b6020821081036134905761348f613436565b5b50919050565b60006060820190506134ab6000830186612e4a565b6134b86020830185612f60565b6134c56040830184612e4a565b949350505050565b7f4e487b7100000000000000000000000000000000000000000000000000000000600052601160045260246000fd5b600061350782612db5565b91507fffffffffffffffffffffffffffffffffffffffffffffffffffffffffffffffff8203613539576135386134cd565b5b600182019050919050565b7f4e487b7100000000000000000000000000000000000000000000000000000000600052603260045260246000fd5b7f4f6e6c7920746865206d616e616765722063616e206d696e7400000000000000600082015250565b60006135a9601983612d0e565b91506135b482613573565b602082019050919050565b600060208201905081810360008301526135d88161359c565b9050919050565b7f4e6f7420746865206f776e657200000000000000000000000000000000000000600082015250565b6000613615600d83612d0e565b9150613620826135df565b602082019050919050565b6000602082019050818103600083015261364481613608565b9050919050565b60006060820190506136606000830186612f60565b61366d6020830185612f60565b61367a6040830184612e4a565b949350505050565b600081905092915050565b600061369882612d03565b6136a28185613682565b93506136b2818560208601612d1f565b80840191505092915050565b60006136ca828561368d565b91506136d6828461368d565b91508190509392505050565b7f486f757365206e6f7420666f722073616c650000000000000000000000000000600082015250565b6000613718601283612d0e565b9150613723826136e2565b602082019050919050565b600060208201905081810360008301526137478161370b565b9050919050565b7f496e73756666696369656e742066756e64730000000000000000000000000000600082015250565b6000613784601283612d0e565b915061378f8261374e565b602082019050919050565b600060208201905081810360008301526137b381613777565b9050919050565b60006137c582612db5565b91506137d083612db5565b92508282039050818111156137e8576137e76134cd565b5b92915050565b60006137f982612db5565b915061380483612db5565b925082820261381281612db5565b91508282048414831517613829576138286134cd565b5b5092915050565b7f4e487b7100000000000000000000000000000000000000000000000000000000600052601260045260246000fd5b600061386a82612db5565b915061387583612db5565b92508261388557613884613830565b5b828204905092915050565b60006060820190506138a56000830186612f60565b6138b26020830185612e4a565b6138bf6040830184612f60565b949350505050565b600060408201905081810360008301526138e18185612d5a565b90506138f06020830184612e4a565b9392505050565b600060408201905081810360008301526139118185612d5a565b90506139206020830184612f60565b9392505050565b600060608201905081810360008301526139418186612d5a565b90506139506020830185612f60565b61395d6040830184612e4a565b949350505050565b6000608082019050818103600083015261397f8187612d5a565b905061398e6020830186612f60565b61399b6040830185612f60565b6139a86060830184612e4a565b95945050505050565b600081519050919050565b600082825260208201905092915050565b60006139d8826139b1565b6139e281856139bc565b93506139f2818560208601612d1f565b6139fb81612d49565b840191505092915050565b6000608082019050613a1b6000830187612e4a565b613a286020830186612e4a565b613a356040830185612f60565b8181036060830152613a4781846139cd565b905095945050505050565b600081519050613a6181612c74565b92915050565b600060208284031215613a7d57613a7c612c3e565b5b6000613a8b84828501613a52565b91505092915050565b60006080820190508181036000830152613aae8187612d5a565b9050613abd6020830186612f60565b613aca6040830185612e4a565b613ad76060830184612f60565b95945050505050565b6000604082019050613af56000830185612e4a565b613b026020830184612f60565b9392505050565b7f4e487b7100000000000000000000000000000000000000000000000000000000600052605160045260246000fdfe486f757365206c697374656420257320666f7220707269636520257320627920257342757920686f7573652025732062792025732077697468207061796d656e74202573a2646970667358221220a0008d2bf3d07a40f190f4eb40f063b240d7756e803f9ab601bec738b12c56f664736f6c63430008140033",
  "linkReferences": {},
  "deployedLinkReferences": {}
}