{
  "_format": "hh-sol-artifact-1",
  "contractName": "BuyMyRoom",
  "sourceName": "contracts/BuyMyRoom.sol",
  "abi": [
    {
      "inputs": [],
      "stateMutability": "nonpayable",
      "type": "constructor"
    },
    {
      "inputs": [
        {
          "internalType": "address",
          "name": "sender",
          "type": "address"
        },
        {
          "internalType": "uint256",
          "name": "tokenId",
          "type": "uint256"
        },
        {
          "internalType": "address",
          "name": "owner",
          "type": "address"
        }
      ],
      "name": "ERC721IncorrectOwner",
      "type": "error"
    },
    {
      "inputs": [
        {
          "internalType": "address",
          "name": "operator",
          "type": "address"
        },
        {
          "internalType": "uint256",
          "name": "tokenId",
          "type": "uint256"
        }
      ],
      "name": "ERC721InsufficientApproval",
      "type": "error"
    },
    {
      "inputs": [
        {
          "internalType": "address",
          "name": "approver",
          "type": "address"
        }
      ],
      "name": "ERC721InvalidApprover",
      "type": "error"
    },
    {
      "inputs": [
        {
          "internalType": "address",
          "name": "operator",
          "type": "address"
        }
      ],
      "name": "ERC721InvalidOperator",
      "type": "error"
    },
    {
      "inputs": [
        {
          "internalType": "address",
          "name": "owner",
          "type": "address"
        }
      ],
      "name": "ERC721InvalidOwner",
      "type": "error"
    },
    {
      "inputs": [
        {
          "internalType": "address",
          "name": "receiver",
          "type": "address"
        }
      ],
      "name": "ERC721InvalidReceiver",
      "type": "error"
    },
    {
      "inputs": [
        {
          "internalType": "address",
          "name": "sender",
          "type": "address"
        }
      ],
      "name": "ERC721InvalidSender",
      "type": "error"
    },
    {
      "inputs": [
        {
          "internalType": "uint256",
          "name": "tokenId",
          "type": "uint256"
        }
      ],
      "name": "ERC721NonexistentToken",
      "type": "error"
    },
    {
      "inputs": [
        {
          "internalType": "address",
          "name": "owner",
          "type": "address"
        }
      ],
      "name": "OwnableInvalidOwner",
      "type": "error"
    },
    {
      "inputs": [
        {
          "internalType": "address",
          "name": "account",
          "type": "address"
        }
      ],
      "name": "OwnableUnauthorizedAccount",
      "type": "error"
    },
    {
      "anonymous": false,
      "inputs": [
        {
          "indexed": true,
          "internalType": "address",
          "name": "owner",
          "type": "address"
        },
        {
          "indexed": true,
          "internalType": "address",
          "name": "approved",
          "type": "address"
        },
        {
          "indexed": true,
          "internalType": "uint256",
          "name": "tokenId",
          "type": "uint256"
        }
      ],
      "name": "Approval",
      "type": "event"
    },
    {
      "anonymous": false,
      "inputs": [
        {
          "indexed": true,
          "internalType": "address",
          "name": "owner",
          "type": "address"
        },
        {
          "indexed": true,
          "internalType": "address",
          "name": "operator",
          "type": "address"
        },
        {
          "indexed": false,
          "internalType": "bool",
          "name": "approved",
          "type": "bool"
        }
      ],
      "name": "ApprovalForAll",
      "type": "event"
    },
    {
      "anonymous": false,
      "inputs": [
        {
          "indexed": false,
          "internalType": "uint256",
          "name": "tokenId",
          "type": "uint256"
        },
        {
          "indexed": false,
          "internalType": "uint256",
          "name": "price",
          "type": "uint256"
        },
        {
          "indexed": false,
          "internalType": "address",
          "name": "owner",
          "type": "address"
        }
      ],
      "name": "HouseListed",
      "type": "event"
    },
    {
      "anonymous": false,
      "inputs": [
        {
          "indexed": false,
          "internalType": "uint256",
          "name": "tokenId",
          "type": "uint256"
        },
        {
          "indexed": false,
          "internalType": "address",
          "name": "newOwner",
          "type": "address"
        },
        {
          "indexed": false,
          "internalType": "uint256",
          "name": "salePrice",
          "type": "uint256"
        }
      ],
      "name": "HouseSold",
      "type": "event"
    },
    {
      "anonymous": false,
      "inputs": [
        {
          "indexed": true,
          "internalType": "address",
          "name": "previousOwner",
          "type": "address"
        },
        {
          "indexed": true,
          "internalType": "address",
          "name": "newOwner",
          "type": "address"
        }
      ],
      "name": "OwnershipTransferred",
      "type": "event"
    },
    {
      "anonymous": false,
      "inputs": [
        {
          "indexed": true,
          "internalType": "address",
          "name": "from",
          "type": "address"
        },
        {
          "indexed": true,
          "internalType": "address",
          "name": "to",
          "type": "address"
        },
        {
          "indexed": true,
          "internalType": "uint256",
          "name": "tokenId",
          "type": "uint256"
        }
      ],
      "name": "Transfer",
      "type": "event"
    },
    {
      "inputs": [
        {
          "internalType": "address",
          "name": "to",
          "type": "address"
        },
        {
          "internalType": "uint256",
          "name": "tokenId",
          "type": "uint256"
        }
      ],
      "name": "approve",
      "outputs": [],
      "stateMutability": "nonpayable",
      "type": "function"
    },
    {
      "inputs": [
        {
          "internalType": "address",
          "name": "owner",
          "type": "address"
        }
      ],
      "name": "balanceOf",
      "outputs": [
        {
          "internalType": "uint256",
          "name": "",
          "type": "uint256"
        }
      ],
      "stateMutability": "view",
      "type": "function"
    },
    {
      "inputs": [
        {
          "internalType": "uint256",
          "name": "tokenId",
          "type": "uint256"
        }
      ],
      "name": "buyHouse",
      "outputs": [],
      "stateMutability": "payable",
      "type": "function"
    },
    {
      "inputs": [],
      "name": "feePercentage",
      "outputs": [
        {
          "internalType": "uint256",
          "name": "",
          "type": "uint256"
        }
      ],
      "stateMutability": "view",
      "type": "function"
    },
    {
      "inputs": [],
      "name": "getAllListedHouses",
      "outputs": [
        {
          "components": [
            {
              "internalType": "uint256",
              "name": "houseId",
              "type": "uint256"
            },
            {
              "internalType": "address",
              "name": "owner",
              "type": "address"
            },
            {
              "internalType": "uint256",
              "name": "price",
              "type": "uint256"
            },
            {
              "internalType": "uint256",
              "name": "listedTimestamp",
              "type": "uint256"
            },
            {
              "internalType": "bool",
              "name": "isListed",
              "type": "bool"
            }
          ],
          "internalType": "struct BuyMyRoom.HouseDTO[]",
          "name": "",
          "type": "tuple[]"
        }
      ],
      "stateMutability": "view",
      "type": "function"
    },
    {
      "inputs": [
        {
          "internalType": "uint256",
          "name": "tokenId",
          "type": "uint256"
        }
      ],
      "name": "getApproved",
      "outputs": [
        {
          "internalType": "address",
          "name": "",
          "type": "address"
        }
      ],
      "stateMutability": "view",
      "type": "function"
    },
    {
      "inputs": [
        {
          "internalType": "uint256",
          "name": "tokenId",
          "type": "uint256"
        }
      ],
      "name": "getHouseInfo",
      "outputs": [
        {
          "components": [
            {
              "internalType": "address",
              "name": "owner",
              "type": "address"
            },
            {
              "internalType": "uint256",
              "name": "price",
              "type": "uint256"
            },
            {
              "internalType": "uint256",
              "name": "listedTimestamp",
              "type": "uint256"
            },
            {
              "internalType": "bool",
              "name": "isListed",
              "type": "bool"
            }
          ],
          "internalType": "struct BuyMyRoom.House",
          "name": "",
          "type": "tuple"
        }
      ],
      "stateMutability": "view",
      "type": "function"
    },
    {
      "inputs": [],
      "name": "getManager",
      "outputs": [
        {
          "internalType": "address",
          "name": "",
          "type": "address"
        }
      ],
      "stateMutability": "view",
      "type": "function"
    },
    {
      "inputs": [],
      "name": "getMyHouses",
      "outputs": [
        {
          "components": [
            {
              "internalType": "uint256",
              "name": "houseId",
              "type": "uint256"
            },
            {
              "internalType": "address",
              "name": "owner",
              "type": "address"
            },
            {
              "internalType": "uint256",
              "name": "price",
              "type": "uint256"
            },
            {
              "internalType": "uint256",
              "name": "listedTimestamp",
              "type": "uint256"
            },
            {
              "internalType": "bool",
              "name": "isListed",
              "type": "bool"
            }
          ],
          "internalType": "struct BuyMyRoom.HouseDTO[]",
          "name": "",
          "type": "tuple[]"
        }
      ],
      "stateMutability": "view",
      "type": "function"
    },
    {
      "inputs": [
        {
          "internalType": "uint256",
          "name": "",
          "type": "uint256"
        }
      ],
      "name": "houses",
      "outputs": [
        {
          "internalType": "address",
          "name": "owner",
          "type": "address"
        },
        {
          "internalType": "uint256",
          "name": "price",
          "type": "uint256"
        },
        {
          "internalType": "uint256",
          "name": "listedTimestamp",
          "type": "uint256"
        },
        {
          "internalType": "bool",
          "name": "isListed",
          "type": "bool"
        }
      ],
      "stateMutability": "view",
      "type": "function"
    },
    {
      "inputs": [
        {
          "internalType": "address",
          "name": "owner",
          "type": "address"
        },
        {
          "internalType": "address",
          "name": "operator",
          "type": "address"
        }
      ],
      "name": "isApprovedForAll",
      "outputs": [
        {
          "internalType": "bool",
          "name": "",
          "type": "bool"
        }
      ],
      "stateMutability": "view",
      "type": "function"
    },
    {
      "inputs": [
        {
          "internalType": "uint256",
          "name": "tokenId",
          "type": "uint256"
        },
        {
          "internalType": "uint256",
          "name": "price",
          "type": "uint256"
        }
      ],
      "name": "listHouse",
      "outputs": [],
      "stateMutability": "nonpayable",
      "type": "function"
    },
    {
      "inputs": [],
      "name": "manager",
      "outputs": [
        {
          "internalType": "address",
          "name": "",
          "type": "address"
        }
      ],
      "stateMutability": "view",
      "type": "function"
    },
    {
      "inputs": [],
      "name": "mintHouse",
      "outputs": [
        {
          "internalType": "uint256",
          "name": "",
          "type": "uint256"
        }
      ],
      "stateMutability": "nonpayable",
      "type": "function"
    },
    {
      "inputs": [],
      "name": "name",
      "outputs": [
        {
          "internalType": "string",
          "name": "",
          "type": "string"
        }
      ],
      "stateMutability": "view",
      "type": "function"
    },
    {
      "inputs": [],
      "name": "nextHouseId",
      "outputs": [
        {
          "internalType": "uint256",
          "name": "",
          "type": "uint256"
        }
      ],
      "stateMutability": "view",
      "type": "function"
    },
    {
      "inputs": [],
      "name": "owner",
      "outputs": [
        {
          "internalType": "address",
          "name": "",
          "type": "address"
        }
      ],
      "stateMutability": "view",
      "type": "function"
    },
    {
      "inputs": [
        {
          "internalType": "uint256",
          "name": "tokenId",
          "type": "uint256"
        }
      ],
      "name": "ownerOf",
      "outputs": [
        {
          "internalType": "address",
          "name": "",
          "type": "address"
        }
      ],
      "stateMutability": "view",
      "type": "function"
    },
    {
      "inputs": [],
      "name": "renounceOwnership",
      "outputs": [],
      "stateMutability": "nonpayable",
      "type": "function"
    },
    {
      "inputs": [
        {
          "internalType": "address",
          "name": "from",
          "type": "address"
        },
        {
          "internalType": "address",
          "name": "to",
          "type": "address"
        },
        {
          "internalType": "uint256",
          "name": "tokenId",
          "type": "uint256"
        }
      ],
      "name": "safeTransferFrom",
      "outputs": [],
      "stateMutability": "nonpayable",
      "type": "function"
    },
    {
      "inputs": [
        {
          "internalType": "address",
          "name": "from",
          "type": "address"
        },
        {
          "internalType": "address",
          "name": "to",
          "type": "address"
        },
        {
          "internalType": "uint256",
          "name": "tokenId",
          "type": "uint256"
        },
        {
          "internalType": "bytes",
          "name": "data",
          "type": "bytes"
        }
      ],
      "name": "safeTransferFrom",
      "outputs": [],
      "stateMutability": "nonpayable",
      "type": "function"
    },
    {
      "inputs": [
        {
          "internalType": "address",
          "name": "operator",
          "type": "address"
        },
        {
          "internalType": "bool",
          "name": "approved",
          "type": "bool"
        }
      ],
      "name": "setApprovalForAll",
      "outputs": [],
      "stateMutability": "nonpayable",
      "type": "function"
    },
    {
      "inputs": [
        {
          "internalType": "bytes4",
          "name": "interfaceId",
          "type": "bytes4"
        }
      ],
      "name": "supportsInterface",
      "outputs": [
        {
          "internalType": "bool",
          "name": "",
          "type": "bool"
        }
      ],
      "stateMutability": "view",
      "type": "function"
    },
    {
      "inputs": [],
      "name": "symbol",
      "outputs": [
        {
          "internalType": "string",
          "name": "",
          "type": "string"
        }
      ],
      "stateMutability": "view",
      "type": "function"
    },
    {
      "inputs": [
        {
          "internalType": "uint256",
          "name": "tokenId",
          "type": "uint256"
        }
      ],
      "name": "tokenURI",
      "outputs": [
        {
          "internalType": "string",
          "name": "",
          "type": "string"
        }
      ],
      "stateMutability": "view",
      "type": "function"
    },
    {
      "inputs": [
        {
          "internalType": "address",
          "name": "from",
          "type": "address"
        },
        {
          "internalType": "address",
          "name": "to",
          "type": "address"
        },
        {
          "internalType": "uint256",
          "name": "tokenId",
          "type": "uint256"
        }
      ],
      "name": "transferFrom",
      "outputs": [],
      "stateMutability": "nonpayable",
      "type": "function"
    },
    {
      "inputs": [
        {
          "internalType": "address",
          "name": "newOwner",
          "type": "address"
        }
      ],
      "name": "transferOwnership",
      "outputs": [],
      "stateMutability": "nonpayable",
      "type": "function"
    }
  ],
  "bytecode": "0x6080604052600060085560056009553480156200001b57600080fd5b50336040518060400160405280600981526020017f4275794d79526f6f6d00000000000000000000000000000000000000000000008152506040518060400160405280600381526020017f424d52000000000000000000000000000000000000000000000000000000000081525081600090816200009a919062000614565b508060019081620000ac919062000614565b505050600073ffffffffffffffffffffffffffffffffffffffff168173ffffffffffffffffffffffffffffffffffffffff1603620001245760006040517f1e4fbdf70000000000000000000000000000000000000000000000000000000081526004016200011b919062000740565b60405180910390fd5b6200013581620001c460201b60201c565b5033600a60006101000a81548173ffffffffffffffffffffffffffffffffffffffff021916908373ffffffffffffffffffffffffffffffffffffffff160217905550620001be6040518060400160405280601881526020017f436f6e7472616374206465706c6f7965642062793a2025730000000000000000815250336200028a60201b60201c565b6200084f565b6000600660009054906101000a900473ffffffffffffffffffffffffffffffffffffffff16905081600660006101000a81548173ffffffffffffffffffffffffffffffffffffffff021916908373ffffffffffffffffffffffffffffffffffffffff1602179055508173ffffffffffffffffffffffffffffffffffffffff168173ffffffffffffffffffffffffffffffffffffffff167f8be0079c531659141344cd1fd0a4f28419497f9722a3daafe3b4186f6b6457e060405160405180910390a35050565b6200032c8282604051602401620002a3929190620007ec565b6040516020818303038152906040527f319af333000000000000000000000000000000000000000000000000000000007bffffffffffffffffffffffffffffffffffffffffffffffffffffffff19166020820180517bffffffffffffffffffffffffffffffffffffffffffffffffffffffff83818316178352505050506200033060201b60201c565b5050565b6200035681620003516200035960201b620019ab176200037a60201b60201c565b60201c565b50565b60006a636f6e736f6c652e6c6f679050600080835160208501845afa505050565b6200038e60201b62002d0717819050919050565b6200039862000820565b565b600081519050919050565b7f4e487b7100000000000000000000000000000000000000000000000000000000600052604160045260246000fd5b7f4e487b7100000000000000000000000000000000000000000000000000000000600052602260045260246000fd5b600060028204905060018216806200041c57607f821691505b602082108103620004325762000431620003d4565b5b50919050565b60008190508160005260206000209050919050565b60006020601f8301049050919050565b600082821b905092915050565b6000600883026200049c7fffffffffffffffffffffffffffffffffffffffffffffffffffffffffffffffff826200045d565b620004a886836200045d565b95508019841693508086168417925050509392505050565b6000819050919050565b6000819050919050565b6000620004f5620004ef620004e984620004c0565b620004ca565b620004c0565b9050919050565b6000819050919050565b6200051183620004d4565b620005296200052082620004fc565b8484546200046a565b825550505050565b600090565b6200054062000531565b6200054d81848462000506565b505050565b5b8181101562000575576200056960008262000536565b60018101905062000553565b5050565b601f821115620005c4576200058e8162000438565b62000599846200044d565b81016020851015620005a9578190505b620005c1620005b8856200044d565b83018262000552565b50505b505050565b600082821c905092915050565b6000620005e960001984600802620005c9565b1980831691505092915050565b6000620006048383620005d6565b9150826002028217905092915050565b6200061f826200039a565b67ffffffffffffffff8111156200063b576200063a620003a5565b5b62000647825462000403565b6200065482828562000579565b600060209050601f8311600181146200068c576000841562000677578287015190505b620006838582620005f6565b865550620006f3565b601f1984166200069c8662000438565b60005b82811015620006c6578489015182556001820191506020850194506020810190506200069f565b86831015620006e65784890151620006e2601f891682620005d6565b8355505b6001600288020188555050505b505050505050565b600073ffffffffffffffffffffffffffffffffffffffff82169050919050565b60006200072882620006fb565b9050919050565b6200073a816200071b565b82525050565b60006020820190506200075760008301846200072f565b92915050565b600082825260208201905092915050565b60005b838110156200078e57808201518184015260208101905062000771565b60008484015250505050565b6000601f19601f8301169050919050565b6000620007b8826200039a565b620007c481856200075d565b9350620007d68185602086016200076e565b620007e1816200079a565b840191505092915050565b60006040820190508181036000830152620008088185620007ab565b90506200081960208301846200072f565b9392505050565b7f4e487b7100000000000000000000000000000000000000000000000000000000600052605160045260246000fd5b613cbd806200085f6000396000f3fe60806040526004361061019c5760003560e01c806399b23178116100ec578063b88d4fde1161008a578063e985e9c511610064578063e985e9c5146105df578063eddc42691461061c578063f2fde38b14610638578063f364333d146106615761019c565b8063b88d4fde1461054e578063c87b56dd14610577578063d5009584146105b45761019c565b8063ad50f56d116100c6578063ad50f56d1461047b578063aeda852f146104b8578063b14f1afd146104f8578063b54230c9146105235761019c565b806399b23178146103fe578063a001ecdd14610427578063a22cb465146104525761019c565b8063481c6a7511610159578063715018a611610133578063715018a614610366578063819782b31461037d5780638da5cb5b146103a857806395d89b41146103d35761019c565b8063481c6a75146102c15780636352211e146102ec57806370a08231146103295761019c565b806301ffc9a7146101a157806306fdde03146101de578063081812fc14610209578063095ea7b31461024657806323b872dd1461026f57806342842e0e14610298575b600080fd5b3480156101ad57600080fd5b506101c860048036038101906101c39190612e04565b61068c565b6040516101d59190612e4c565b60405180910390f35b3480156101ea57600080fd5b506101f361076e565b6040516102009190612ef7565b60405180910390f35b34801561021557600080fd5b50610230600480360381019061022b9190612f4f565b610800565b60405161023d9190612fbd565b60405180910390f35b34801561025257600080fd5b5061026d60048036038101906102689190613004565b61081c565b005b34801561027b57600080fd5b5061029660048036038101906102919190613044565b610832565b005b3480156102a457600080fd5b506102bf60048036038101906102ba9190613044565b610934565b005b3480156102cd57600080fd5b506102d6610954565b6040516102e39190612fbd565b60405180910390f35b3480156102f857600080fd5b50610313600480360381019061030e9190612f4f565b61097a565b6040516103209190612fbd565b60405180910390f35b34801561033557600080fd5b50610350600480360381019061034b9190613097565b61098c565b60405161035d91906130d3565b60405180910390f35b34801561037257600080fd5b5061037b610a46565b005b34801561038957600080fd5b50610392610a5a565b60405161039f9190613232565b60405180910390f35b3480156103b457600080fd5b506103bd610cd0565b6040516103ca9190612fbd565b60405180910390f35b3480156103df57600080fd5b506103e8610cfa565b6040516103f59190612ef7565b60405180910390f35b34801561040a57600080fd5b5061042560048036038101906104209190613254565b610d8c565b005b34801561043357600080fd5b5061043c610eca565b60405161044991906130d3565b60405180910390f35b34801561045e57600080fd5b50610479600480360381019061047491906132c0565b610ed0565b005b34801561048757600080fd5b506104a2600480360381019061049d9190612f4f565b610ee6565b6040516104af9190613355565b60405180910390f35b3480156104c457600080fd5b506104df60048036038101906104da9190612f4f565b610fd7565b6040516104ef9493929190613370565b60405180910390f35b34801561050457600080fd5b5061050d611034565b60405161051a9190613232565b60405180910390f35b34801561052f57600080fd5b5061053861132a565b60405161054591906130d3565b60405180910390f35b34801561055a57600080fd5b50610575600480360381019061057091906134ea565b611330565b005b34801561058357600080fd5b5061059e60048036038101906105999190612f4f565b61134d565b6040516105ab9190612ef7565b60405180910390f35b3480156105c057600080fd5b506105c96113b6565b6040516105d69190612fbd565b60405180910390f35b3480156105eb57600080fd5b506106066004803603810190610601919061356d565b6113e0565b6040516106139190612e4c565b60405180910390f35b61063660048036038101906106319190612f4f565b611474565b005b34801561064457600080fd5b5061065f600480360381019061065a9190613097565b6117ec565b005b34801561066d57600080fd5b50610676611872565b60405161068391906130d3565b60405180910390f35b60007f80ac58cd000000000000000000000000000000000000000000000000000000007bffffffffffffffffffffffffffffffffffffffffffffffffffffffff1916827bffffffffffffffffffffffffffffffffffffffffffffffffffffffff1916148061075757507f5b5e139f000000000000000000000000000000000000000000000000000000007bffffffffffffffffffffffffffffffffffffffffffffffffffffffff1916827bffffffffffffffffffffffffffffffffffffffffffffffffffffffff1916145b806107675750610766826119cc565b5b9050919050565b60606000805461077d906135dc565b80601f01602080910402602001604051908101604052809291908181526020018280546107a9906135dc565b80156107f65780601f106107cb576101008083540402835291602001916107f6565b820191906000526020600020905b8154815290600101906020018083116107d957829003601f168201915b5050505050905090565b600061080b82611a36565b5061081582611abe565b9050919050565b61082e8282610829611afb565b611b03565b5050565b600073ffffffffffffffffffffffffffffffffffffffff168273ffffffffffffffffffffffffffffffffffffffff16036108a45760006040517f64a0ae9200000000000000000000000000000000000000000000000000000000815260040161089b9190612fbd565b60405180910390fd5b60006108b883836108b3611afb565b611b15565b90508373ffffffffffffffffffffffffffffffffffffffff168173ffffffffffffffffffffffffffffffffffffffff161461092e578382826040517f64283d7b0000000000000000000000000000000000000000000000000000000081526004016109259392919061360d565b60405180910390fd5b50505050565b61094f83838360405180602001604052806000815250611330565b505050565b600a60009054906101000a900473ffffffffffffffffffffffffffffffffffffffff1681565b600061098582611a36565b9050919050565b60008073ffffffffffffffffffffffffffffffffffffffff168273ffffffffffffffffffffffffffffffffffffffff16036109ff5760006040517f89c62b640000000000000000000000000000000000000000000000000000000081526004016109f69190612fbd565b60405180910390fd5b600360008373ffffffffffffffffffffffffffffffffffffffff1673ffffffffffffffffffffffffffffffffffffffff168152602001908152602001600020549050919050565b610a4e611d2f565b610a586000611db6565b565b60606000805b600854811015610ab5576007600082815260200190815260200160002060030160009054906101000a900460ff1615610aa2578180610a9e90613673565b9250505b8080610aad90613673565b915050610a60565b5060008167ffffffffffffffff811115610ad257610ad16133bf565b5b604051908082528060200260200182016040528015610b0b57816020015b610af8612d11565b815260200190600190039081610af05790505b5090506000610b4f6040518060400160405280600881526020017f557365723a20257300000000000000000000000000000000000000000000000081525033611e7c565b60005b600854811015610cc6576007600082815260200190815260200160002060030160009054906101000a900460ff1615610cb3576040518060a001604052808281526020016007600084815260200190815260200160002060000160009054906101000a900473ffffffffffffffffffffffffffffffffffffffff1673ffffffffffffffffffffffffffffffffffffffff16815260200160076000848152602001908152602001600020600101548152602001600760008481526020019081526020016000206002015481526020016007600084815260200190815260200160002060030160009054906101000a900460ff161515815250838380610c5590613673565b945081518110610c6857610c676136bb565b5b6020026020010181905250610cb26040518060400160405280601581526020017f466f756e64206c697374656420686f757365202573000000000000000000000081525082611f18565b5b8080610cbe90613673565b915050610b52565b5081935050505090565b6000600660009054906101000a900473ffffffffffffffffffffffffffffffffffffffff16905090565b606060018054610d09906135dc565b80601f0160208091040260200160405190810160405280929190818152602001828054610d35906135dc565b8015610d825780601f10610d5757610100808354040283529160200191610d82565b820191906000526020600020905b815481529060010190602001808311610d6557829003601f168201915b5050505050905090565b3373ffffffffffffffffffffffffffffffffffffffff16610dac8361097a565b73ffffffffffffffffffffffffffffffffffffffff1614610e02576040517f08c379a0000000000000000000000000000000000000000000000000000000008152600401610df990613736565b60405180910390fd5b80600760008481526020019081526020016000206001018190555042600760008481526020019081526020016000206002018190555060016007600084815260200190815260200160002060030160006101000a81548160ff0219169083151502179055507f60b3e540896cf4a419e7b7274a1f1282223f5d92ca6f0152cf820fe457fb4843828233604051610e9a93929190613756565b60405180910390a1610ec6604051806060016040528060228152602001613c4460229139838333611fb4565b5050565b60095481565b610ee2610edb611afb565b8383612056565b5050565b610eee612d58565b610f2d6040518060400160405280601a81526020017f4665746368696e6720696e666f20666f7220686f75736520257300000000000081525083611f18565b600760008381526020019081526020016000206040518060800160405290816000820160009054906101000a900473ffffffffffffffffffffffffffffffffffffffff1673ffffffffffffffffffffffffffffffffffffffff1673ffffffffffffffffffffffffffffffffffffffff16815260200160018201548152602001600282015481526020016003820160009054906101000a900460ff1615151515815250509050919050565b60076020528060005260406000206000915090508060000160009054906101000a900473ffffffffffffffffffffffffffffffffffffffff16908060010154908060020154908060030160009054906101000a900460ff16905084565b60606000805b6008548110156110cf573373ffffffffffffffffffffffffffffffffffffffff166007600083815260200190815260200160002060000160009054906101000a900473ffffffffffffffffffffffffffffffffffffffff1673ffffffffffffffffffffffffffffffffffffffff16036110bc5781806110b890613673565b9250505b80806110c790613673565b91505061103a565b5060008167ffffffffffffffff8111156110ec576110eb6133bf565b5b60405190808252806020026020018201604052801561112557816020015b611112612d11565b81526020019060019003908161110a5790505b50905060006111696040518060400160405280600881526020017f557365723a20257300000000000000000000000000000000000000000000000081525033611e7c565b60005b600854811015611320573373ffffffffffffffffffffffffffffffffffffffff166007600083815260200190815260200160002060000160009054906101000a900473ffffffffffffffffffffffffffffffffffffffff1673ffffffffffffffffffffffffffffffffffffffff160361130d576040518060a001604052808281526020016007600084815260200190815260200160002060000160009054906101000a900473ffffffffffffffffffffffffffffffffffffffff1673ffffffffffffffffffffffffffffffffffffffff16815260200160076000848152602001908152602001600020600101548152602001600760008481526020019081526020016000206002015481526020016007600084815260200190815260200160002060030160009054906101000a900460ff1615158152508383806112af90613673565b9450815181106112c2576112c16136bb565b5b602002602001018190525061130c6040518060400160405280601781526020017f466f756e6420686f75736520666f72207573657220257300000000000000000081525082611f18565b5b808061131890613673565b91505061116c565b5081935050505090565b60085481565b61133b848484610832565b611347848484846121c5565b50505050565b606061135882611a36565b50600061136361237c565b9050600081511161138357604051806020016040528060008152506113ae565b8061138d84612393565b60405160200161139e9291906137c9565b6040516020818303038152906040525b915050919050565b6000600a60009054906101000a900473ffffffffffffffffffffffffffffffffffffffff16905090565b6000600560008473ffffffffffffffffffffffffffffffffffffffff1673ffffffffffffffffffffffffffffffffffffffff16815260200190815260200160002060008373ffffffffffffffffffffffffffffffffffffffff1673ffffffffffffffffffffffffffffffffffffffff16815260200190815260200160002060009054906101000a900460ff16905092915050565b6000600760008381526020019081526020016000206040518060800160405290816000820160009054906101000a900473ffffffffffffffffffffffffffffffffffffffff1673ffffffffffffffffffffffffffffffffffffffff1673ffffffffffffffffffffffffffffffffffffffff16815260200160018201548152602001600282015481526020016003820160009054906101000a900460ff1615151515815250509050806060015161155f576040517f08c379a000000000000000000000000000000000000000000000000000000000815260040161155690613839565b60405180910390fd5b80602001513410156115a6576040517f08c379a000000000000000000000000000000000000000000000000000000000815260040161159d906138a5565b60405180910390fd5b6115ca604051806060016040528060228152602001613c6660229139833334612461565b60008160400151426115dc91906138c5565b905060006103e88360200151600954846115f691906138f9565b61160091906138f9565b61160a919061396a565b905061161f6116188561097a565b3386612503565b600a60009054906101000a900473ffffffffffffffffffffffffffffffffffffffff1673ffffffffffffffffffffffffffffffffffffffff166108fc829081150290604051600060405180830381858888f19350505050158015611687573d6000803e3d6000fd5b50826000015173ffffffffffffffffffffffffffffffffffffffff166108fc8285602001516116b691906138c5565b9081150290604051600060405180830381858888f193505050501580156116e1573d6000803e3d6000fd5b50336007600086815260200190815260200160002060000160006101000a81548173ffffffffffffffffffffffffffffffffffffffff021916908373ffffffffffffffffffffffffffffffffffffffff16021790555060006007600086815260200190815260200160002060030160006101000a81548160ff0219169083151502179055507f7d8ae52f455fef56a09ce9edb1dc811247eeee52705033ef77eb1dbf84fb9cbd8433856020015160405161179d9392919061399b565b60405180910390a16117e66040518060400160405280601f81526020017f486f75736520736f6c6420257320746f20257320776974682066656520257300815250853384612461565b50505050565b6117f4611d2f565b600073ffffffffffffffffffffffffffffffffffffffff168173ffffffffffffffffffffffffffffffffffffffff16036118665760006040517f1e4fbdf700000000000000000000000000000000000000000000000000000000815260040161185d9190612fbd565b60405180910390fd5b61186f81611db6565b50565b6000806008600081548092919061188890613673565b9190505590506118983382612670565b60405180608001604052803373ffffffffffffffffffffffffffffffffffffffff16815260200160008152602001428152602001600015158152506007600083815260200190815260200160002060008201518160000160006101000a81548173ffffffffffffffffffffffffffffffffffffffff021916908373ffffffffffffffffffffffffffffffffffffffff160217905550602082015181600101556040820151816002015560608201518160030160006101000a81548160ff0219169083151502179055509050506119a46040518060400160405280601581526020017f486f757365206d696e74656420257320627920257300000000000000000000008152508233612769565b8091505090565b60006a636f6e736f6c652e6c6f679050600080835160208501845afa505050565b60007f01ffc9a7000000000000000000000000000000000000000000000000000000007bffffffffffffffffffffffffffffffffffffffffffffffffffffffff1916827bffffffffffffffffffffffffffffffffffffffffffffffffffffffff1916149050919050565b600080611a4283612808565b9050600073ffffffffffffffffffffffffffffffffffffffff168173ffffffffffffffffffffffffffffffffffffffff1603611ab557826040517f7e273289000000000000000000000000000000000000000000000000000000008152600401611aac91906130d3565b60405180910390fd5b80915050919050565b60006004600083815260200190815260200160002060009054906101000a900473ffffffffffffffffffffffffffffffffffffffff169050919050565b600033905090565b611b108383836001612845565b505050565b600080611b2184612808565b9050600073ffffffffffffffffffffffffffffffffffffffff168373ffffffffffffffffffffffffffffffffffffffff1614611b6357611b62818486612a0a565b5b600073ffffffffffffffffffffffffffffffffffffffff168173ffffffffffffffffffffffffffffffffffffffff1614611bf457611ba5600085600080612845565b6001600360008373ffffffffffffffffffffffffffffffffffffffff1673ffffffffffffffffffffffffffffffffffffffff168152602001908152602001600020600082825403925050819055505b600073ffffffffffffffffffffffffffffffffffffffff168573ffffffffffffffffffffffffffffffffffffffff1614611c77576001600360008773ffffffffffffffffffffffffffffffffffffffff1673ffffffffffffffffffffffffffffffffffffffff168152602001908152602001600020600082825401925050819055505b846002600086815260200190815260200160002060006101000a81548173ffffffffffffffffffffffffffffffffffffffff021916908373ffffffffffffffffffffffffffffffffffffffff160217905550838573ffffffffffffffffffffffffffffffffffffffff168273ffffffffffffffffffffffffffffffffffffffff167fddf252ad1be2c89b69c2b068fc378daa952ba7f163c4a11628f55a4df523b3ef60405160405180910390a4809150509392505050565b611d37611afb565b73ffffffffffffffffffffffffffffffffffffffff16611d55610cd0565b73ffffffffffffffffffffffffffffffffffffffff1614611db457611d78611afb565b6040517f118cdaa7000000000000000000000000000000000000000000000000000000008152600401611dab9190612fbd565b60405180910390fd5b565b6000600660009054906101000a900473ffffffffffffffffffffffffffffffffffffffff16905081600660006101000a81548173ffffffffffffffffffffffffffffffffffffffff021916908373ffffffffffffffffffffffffffffffffffffffff1602179055508173ffffffffffffffffffffffffffffffffffffffff168173ffffffffffffffffffffffffffffffffffffffff167f8be0079c531659141344cd1fd0a4f28419497f9722a3daafe3b4186f6b6457e060405160405180910390a35050565b611f148282604051602401611e929291906139d2565b6040516020818303038152906040527f319af333000000000000000000000000000000000000000000000000000000007bffffffffffffffffffffffffffffffffffffffffffffffffffffffff19166020820180517bffffffffffffffffffffffffffffffffffffffffffffffffffffffff8381831617835250505050612ace565b5050565b611fb08282604051602401611f2e929190613a02565b6040516020818303038152906040527fb60e72cc000000000000000000000000000000000000000000000000000000007bffffffffffffffffffffffffffffffffffffffffffffffffffffffff19166020820180517bffffffffffffffffffffffffffffffffffffffffffffffffffffffff8381831617835250505050612ace565b5050565b61205084848484604051602401611fce9493929190613a32565b6040516020818303038152906040527fe21de278000000000000000000000000000000000000000000000000000000007bffffffffffffffffffffffffffffffffffffffffffffffffffffffff19166020820180517bffffffffffffffffffffffffffffffffffffffffffffffffffffffff8381831617835250505050612ace565b50505050565b600073ffffffffffffffffffffffffffffffffffffffff168273ffffffffffffffffffffffffffffffffffffffff16036120c757816040517f5b08ba180000000000000000000000000000000000000000000000000000000081526004016120be9190612fbd565b60405180910390fd5b80600560008573ffffffffffffffffffffffffffffffffffffffff1673ffffffffffffffffffffffffffffffffffffffff16815260200190815260200160002060008473ffffffffffffffffffffffffffffffffffffffff1673ffffffffffffffffffffffffffffffffffffffff16815260200190815260200160002060006101000a81548160ff0219169083151502179055508173ffffffffffffffffffffffffffffffffffffffff168373ffffffffffffffffffffffffffffffffffffffff167f17307eab39ab6107e8899845ad3d59bd9653f200f220920489ca2b5937696c31836040516121b89190612e4c565b60405180910390a3505050565b60008373ffffffffffffffffffffffffffffffffffffffff163b1115612376578273ffffffffffffffffffffffffffffffffffffffff1663150b7a02612209611afb565b8685856040518563ffffffff1660e01b815260040161222b9493929190613ad3565b6020604051808303816000875af192505050801561226757506040513d601f19601f820116820180604052508101906122649190613b34565b60015b6122eb573d8060008114612297576040519150601f19603f3d011682016040523d82523d6000602084013e61229c565b606091505b5060008151036122e357836040517f64a0ae920000000000000000000000000000000000000000000000000000000081526004016122da9190612fbd565b60405180910390fd5b805181602001fd5b63150b7a0260e01b7bffffffffffffffffffffffffffffffffffffffffffffffffffffffff1916817bffffffffffffffffffffffffffffffffffffffffffffffffffffffff19161461237457836040517f64a0ae9200000000000000000000000000000000000000000000000000000000815260040161236b9190612fbd565b60405180910390fd5b505b50505050565b606060405180602001604052806000815250905090565b6060600060016123a284612ae8565b01905060008167ffffffffffffffff8111156123c1576123c06133bf565b5b6040519080825280601f01601f1916602001820160405280156123f35781602001600182028036833780820191505090505b509050600082602001820190505b600115612456578080600190039150507f3031323334353637383961626364656600000000000000000000000000000000600a86061a8153600a858161244a5761244961393b565b5b04945060008503612401575b819350505050919050565b6124fd8484848460405160240161247b9493929190613b61565b6040516020818303038152906040527f4f04fdc6000000000000000000000000000000000000000000000000000000007bffffffffffffffffffffffffffffffffffffffffffffffffffffffff19166020820180517bffffffffffffffffffffffffffffffffffffffffffffffffffffffff8381831617835250505050612ace565b50505050565b600073ffffffffffffffffffffffffffffffffffffffff168273ffffffffffffffffffffffffffffffffffffffff16036125755760006040517f64a0ae9200000000000000000000000000000000000000000000000000000000815260040161256c9190612fbd565b60405180910390fd5b600061258383836000611b15565b9050600073ffffffffffffffffffffffffffffffffffffffff168173ffffffffffffffffffffffffffffffffffffffff16036125f657816040517f7e2732890000000000000000000000000000000000000000000000000000000081526004016125ed91906130d3565b60405180910390fd5b8373ffffffffffffffffffffffffffffffffffffffff168173ffffffffffffffffffffffffffffffffffffffff161461266a578382826040517f64283d7b0000000000000000000000000000000000000000000000000000000081526004016126619392919061360d565b60405180910390fd5b50505050565b600073ffffffffffffffffffffffffffffffffffffffff168273ffffffffffffffffffffffffffffffffffffffff16036126e25760006040517f64a0ae920000000000000000000000000000000000000000000000000000000081526004016126d99190612fbd565b60405180910390fd5b60006126f083836000611b15565b9050600073ffffffffffffffffffffffffffffffffffffffff168173ffffffffffffffffffffffffffffffffffffffff16146127645760006040517f73c6ac6e00000000000000000000000000000000000000000000000000000000815260040161275b9190612fbd565b60405180910390fd5b505050565b61280383838360405160240161278193929190613bad565b6040516020818303038152906040527f1c7ec448000000000000000000000000000000000000000000000000000000007bffffffffffffffffffffffffffffffffffffffffffffffffffffffff19166020820180517bffffffffffffffffffffffffffffffffffffffffffffffffffffffff8381831617835250505050612ace565b505050565b60006002600083815260200190815260200160002060009054906101000a900473ffffffffffffffffffffffffffffffffffffffff169050919050565b808061287e5750600073ffffffffffffffffffffffffffffffffffffffff168273ffffffffffffffffffffffffffffffffffffffff1614155b156129b257600061288e84611a36565b9050600073ffffffffffffffffffffffffffffffffffffffff168373ffffffffffffffffffffffffffffffffffffffff16141580156128f957508273ffffffffffffffffffffffffffffffffffffffff168173ffffffffffffffffffffffffffffffffffffffff1614155b801561290c575061290a81846113e0565b155b1561294e57826040517fa9fbf51f0000000000000000000000000000000000000000000000000000000081526004016129459190612fbd565b60405180910390fd5b81156129b057838573ffffffffffffffffffffffffffffffffffffffff168273ffffffffffffffffffffffffffffffffffffffff167f8c5be1e5ebec7d5bd14f71427d1e84f3dd0314c0f7b2291e5b200ac8c7c3b92560405160405180910390a45b505b836004600085815260200190815260200160002060006101000a81548173ffffffffffffffffffffffffffffffffffffffff021916908373ffffffffffffffffffffffffffffffffffffffff16021790555050505050565b612a15838383612c3b565b612ac957600073ffffffffffffffffffffffffffffffffffffffff168373ffffffffffffffffffffffffffffffffffffffff1603612a8a57806040517f7e273289000000000000000000000000000000000000000000000000000000008152600401612a8191906130d3565b60405180910390fd5b81816040517f177e802f000000000000000000000000000000000000000000000000000000008152600401612ac0929190613beb565b60405180910390fd5b505050565b612ae581612add6119ab612cfc565b63ffffffff16565b50565b600080600090507a184f03e93ff9f4daa797ed6e38ed64bf6a1f0100000000000000008310612b46577a184f03e93ff9f4daa797ed6e38ed64bf6a1f0100000000000000008381612b3c57612b3b61393b565b5b0492506040810190505b6d04ee2d6d415b85acef81000000008310612b83576d04ee2d6d415b85acef81000000008381612b7957612b7861393b565b5b0492506020810190505b662386f26fc100008310612bb257662386f26fc100008381612ba857612ba761393b565b5b0492506010810190505b6305f5e1008310612bdb576305f5e1008381612bd157612bd061393b565b5b0492506008810190505b6127108310612c00576127108381612bf657612bf561393b565b5b0492506004810190505b60648310612c235760648381612c1957612c1861393b565b5b0492506002810190505b600a8310612c32576001810190505b80915050919050565b60008073ffffffffffffffffffffffffffffffffffffffff168373ffffffffffffffffffffffffffffffffffffffff1614158015612cf357508273ffffffffffffffffffffffffffffffffffffffff168473ffffffffffffffffffffffffffffffffffffffff161480612cb45750612cb384846113e0565b5b80612cf257508273ffffffffffffffffffffffffffffffffffffffff16612cda83611abe565b73ffffffffffffffffffffffffffffffffffffffff16145b5b90509392505050565b612d07819050919050565b612d0f613c14565b565b6040518060a0016040528060008152602001600073ffffffffffffffffffffffffffffffffffffffff16815260200160008152602001600081526020016000151581525090565b6040518060800160405280600073ffffffffffffffffffffffffffffffffffffffff16815260200160008152602001600081526020016000151581525090565b6000604051905090565b600080fd5b600080fd5b60007fffffffff0000000000000000000000000000000000000000000000000000000082169050919050565b612de181612dac565b8114612dec57600080fd5b50565b600081359050612dfe81612dd8565b92915050565b600060208284031215612e1a57612e19612da2565b5b6000612e2884828501612def565b91505092915050565b60008115159050919050565b612e4681612e31565b82525050565b6000602082019050612e616000830184612e3d565b92915050565b600081519050919050565b600082825260208201905092915050565b60005b83811015612ea1578082015181840152602081019050612e86565b60008484015250505050565b6000601f19601f8301169050919050565b6000612ec982612e67565b612ed38185612e72565b9350612ee3818560208601612e83565b612eec81612ead565b840191505092915050565b60006020820190508181036000830152612f118184612ebe565b905092915050565b6000819050919050565b612f2c81612f19565b8114612f3757600080fd5b50565b600081359050612f4981612f23565b92915050565b600060208284031215612f6557612f64612da2565b5b6000612f7384828501612f3a565b91505092915050565b600073ffffffffffffffffffffffffffffffffffffffff82169050919050565b6000612fa782612f7c565b9050919050565b612fb781612f9c565b82525050565b6000602082019050612fd26000830184612fae565b92915050565b612fe181612f9c565b8114612fec57600080fd5b50565b600081359050612ffe81612fd8565b92915050565b6000806040838503121561301b5761301a612da2565b5b600061302985828601612fef565b925050602061303a85828601612f3a565b9150509250929050565b60008060006060848603121561305d5761305c612da2565b5b600061306b86828701612fef565b935050602061307c86828701612fef565b925050604061308d86828701612f3a565b9150509250925092565b6000602082840312156130ad576130ac612da2565b5b60006130bb84828501612fef565b91505092915050565b6130cd81612f19565b82525050565b60006020820190506130e860008301846130c4565b92915050565b600081519050919050565b600082825260208201905092915050565b6000819050602082019050919050565b61312381612f19565b82525050565b61313281612f9c565b82525050565b61314181612e31565b82525050565b60a08201600082015161315d600085018261311a565b5060208201516131706020850182613129565b506040820151613183604085018261311a565b506060820151613196606085018261311a565b5060808201516131a96080850182613138565b50505050565b60006131bb8383613147565b60a08301905092915050565b6000602082019050919050565b60006131df826130ee565b6131e981856130f9565b93506131f48361310a565b8060005b8381101561322557815161320c88826131af565b9750613217836131c7565b9250506001810190506131f8565b5085935050505092915050565b6000602082019050818103600083015261324c81846131d4565b905092915050565b6000806040838503121561326b5761326a612da2565b5b600061327985828601612f3a565b925050602061328a85828601612f3a565b9150509250929050565b61329d81612e31565b81146132a857600080fd5b50565b6000813590506132ba81613294565b92915050565b600080604083850312156132d7576132d6612da2565b5b60006132e585828601612fef565b92505060206132f6858286016132ab565b9150509250929050565b6080820160008201516133166000850182613129565b506020820151613329602085018261311a565b50604082015161333c604085018261311a565b50606082015161334f6060850182613138565b50505050565b600060808201905061336a6000830184613300565b92915050565b60006080820190506133856000830187612fae565b61339260208301866130c4565b61339f60408301856130c4565b6133ac6060830184612e3d565b95945050505050565b600080fd5b600080fd5b7f4e487b7100000000000000000000000000000000000000000000000000000000600052604160045260246000fd5b6133f782612ead565b810181811067ffffffffffffffff82111715613416576134156133bf565b5b80604052505050565b6000613429612d98565b905061343582826133ee565b919050565b600067ffffffffffffffff821115613455576134546133bf565b5b61345e82612ead565b9050602081019050919050565b82818337600083830152505050565b600061348d6134888461343a565b61341f565b9050828152602081018484840111156134a9576134a86133ba565b5b6134b484828561346b565b509392505050565b600082601f8301126134d1576134d06133b5565b5b81356134e184826020860161347a565b91505092915050565b6000806000806080858703121561350457613503612da2565b5b600061351287828801612fef565b945050602061352387828801612fef565b935050604061353487828801612f3a565b925050606085013567ffffffffffffffff81111561355557613554612da7565b5b613561878288016134bc565b91505092959194509250565b6000806040838503121561358457613583612da2565b5b600061359285828601612fef565b92505060206135a385828601612fef565b9150509250929050565b7f4e487b7100000000000000000000000000000000000000000000000000000000600052602260045260246000fd5b600060028204905060018216806135f457607f821691505b602082108103613607576136066135ad565b5b50919050565b60006060820190506136226000830186612fae565b61362f60208301856130c4565b61363c6040830184612fae565b949350505050565b7f4e487b7100000000000000000000000000000000000000000000000000000000600052601160045260246000fd5b600061367e82612f19565b91507fffffffffffffffffffffffffffffffffffffffffffffffffffffffffffffffff82036136b0576136af613644565b5b600182019050919050565b7f4e487b7100000000000000000000000000000000000000000000000000000000600052603260045260246000fd5b7f4e6f7420746865206f776e657200000000000000000000000000000000000000600082015250565b6000613720600d83612e72565b915061372b826136ea565b602082019050919050565b6000602082019050818103600083015261374f81613713565b9050919050565b600060608201905061376b60008301866130c4565b61377860208301856130c4565b6137856040830184612fae565b949350505050565b600081905092915050565b60006137a382612e67565b6137ad818561378d565b93506137bd818560208601612e83565b80840191505092915050565b60006137d58285613798565b91506137e18284613798565b91508190509392505050565b7f486f757365206e6f7420666f722073616c650000000000000000000000000000600082015250565b6000613823601283612e72565b915061382e826137ed565b602082019050919050565b6000602082019050818103600083015261385281613816565b9050919050565b7f496e73756666696369656e742066756e64730000000000000000000000000000600082015250565b600061388f601283612e72565b915061389a82613859565b602082019050919050565b600060208201905081810360008301526138be81613882565b9050919050565b60006138d082612f19565b91506138db83612f19565b92508282039050818111156138f3576138f2613644565b5b92915050565b600061390482612f19565b915061390f83612f19565b925082820261391d81612f19565b9150828204841483151761393457613933613644565b5b5092915050565b7f4e487b7100000000000000000000000000000000000000000000000000000000600052601260045260246000fd5b600061397582612f19565b915061398083612f19565b9250826139905761398f61393b565b5b828204905092915050565b60006060820190506139b060008301866130c4565b6139bd6020830185612fae565b6139ca60408301846130c4565b949350505050565b600060408201905081810360008301526139ec8185612ebe565b90506139fb6020830184612fae565b9392505050565b60006040820190508181036000830152613a1c8185612ebe565b9050613a2b60208301846130c4565b9392505050565b60006080820190508181036000830152613a4c8187612ebe565b9050613a5b60208301866130c4565b613a6860408301856130c4565b613a756060830184612fae565b95945050505050565b600081519050919050565b600082825260208201905092915050565b6000613aa582613a7e565b613aaf8185613a89565b9350613abf818560208601612e83565b613ac881612ead565b840191505092915050565b6000608082019050613ae86000830187612fae565b613af56020830186612fae565b613b0260408301856130c4565b8181036060830152613b148184613a9a565b905095945050505050565b600081519050613b2e81612dd8565b92915050565b600060208284031215613b4a57613b49612da2565b5b6000613b5884828501613b1f565b91505092915050565b60006080820190508181036000830152613b7b8187612ebe565b9050613b8a60208301866130c4565b613b976040830185612fae565b613ba460608301846130c4565b95945050505050565b60006060820190508181036000830152613bc78186612ebe565b9050613bd660208301856130c4565b613be36040830184612fae565b949350505050565b6000604082019050613c006000830185612fae565b613c0d60208301846130c4565b9392505050565b7f4e487b7100000000000000000000000000000000000000000000000000000000600052605160045260246000fdfe486f757365206c697374656420257320666f7220707269636520257320627920257342757920686f7573652025732062792025732077697468207061796d656e74202573a2646970667358221220e6505354b9f178d7e5c03f93ca17a3053eb241144cb4f035a0ce50d4033446da64736f6c63430008140033",
  "linkReferences": {},
  "deployedLinkReferences": {}
}